:020000040800F2
:10000000783400203D020008C9330008492F000859
:10001000713000084D1900086B3C0008000000001A
:10002000000000000000000000000000F937000898
:10003000D51C000800000000E1360008193900084E
:10004000570200085702000857020008570200082C
:10005000570200085702000857020008570200081C
:10006000570200085702000857020008570200080C
:1000700057020008570200085702000857020008FC
:1000800057020008570200085702000857020008EC
:10009000570200085702000857020008F11C000828
:1000A00057020008570200085702000857020008CC
:1000B000B539000857020008570200085702000827
:1000C00057020008570200085702000857020008AC
:1000D00057020008F53900085D3A0008893A00081F
:1000E000570200085702000857020008570200088C
:1000F000570200085702000857020008570200087C
:10010000570200085702000857020008570200086B
:10011000570200085702000857020008570200085B
:10012000570200085702000857020008570200084B
:1001300000F002F800F073F80AA090E8000C824486
:100140008344AAF10107DA4501D100F068F8AFF263
:10015000090EBAE80F0013F0010F18BFFB1A43F0A5
:10016000010318478CD90000ACD900000A444FF0B5
:10017000000C10F8013B13F0070408BF10F8014B06
:100180001D1108BF10F8015B641E05D010F8016B4B
:10019000641E01F8016BF9D113F0080F1EBF10F8AF
:1001A000014BAD1C0C1B09D16D1E58BF01F801CBD2
:1001B000FAD505E014F8016B01F8016B6D1EF9D555
:1001C0009142D6D37047000000230024002500266A
:1001D000103A28BF78C1FBD8520728BF30C148BFAA
:1001E0000B607047702900F0898166290BF0F58457
:1001F000642900F01381782900F07381732900F0DD
:100200007086002070471FB500F0A6FE0400002095
:1002100000210AF099FAE0601FBD10B510BD00F092
:100220009FFF1146FFF7EFFF07F0A8FD00F0BDFFAD
:1002300003B4FFF7F2FF03BC04F08FF809488047CE
:1002400009480047FEE7FEE7FEE7FEE7FEE7FEE7B8
:10025000FEE7FEE7FEE7FEE704480549054A064BD0
:10026000704700005539000831010008782A002045
:1002700078340020782C0020782C0020704770B54E
:100280000446051F00F07EFB0068002C14BF446884
:1002900070BD002C18BFAC423CBF20466468F8D348
:1002A00001680A18AA4218BF456003D12A680546AA
:1002B0001144016028684119A1421CBF6C6070BDE7
:1002C0006168696021680844286070BD0FB4044902
:1002D00010B503AA029800F009FE10BC5DF814FBEB
:1002E000A00000200FB41CB5074B06AA7B4469464A
:1002F0000090059800F0C3FD0020694600F0D2FD93
:100300001CBC5DF814FB0000B50B00000FB41CB55D
:100310000C0007AA009001D02044401E074B7B44EC
:1003200069460190069800F0AAFD002C03D06946AA
:10033000002000F0B7FD1CBC5DF814FB8D0B000025
:100340000FB41CB50C0007AA009002D000EB4400CB
:10035000801E094B7B4469460190069800F0DDFD44
:10036000002C06D069460198801C0190002000F006
:10037000E7FD1CBC5DF814FBE90B000070B50446FA
:1003800085690068C10601D5302600E02026C00737
:1003900007D070BDD4E9012130469047206A401C47
:1003A00020626D1EF6D570BD70B504468569007873
:1003B000C00707D170BDD4E9012120209047206AF1
:1003C000401C20626D1EF6D570BD70B50C4605460A
:1003D000012A05D02878800600D5EA69002302E0CA
:1003E000012305E05B1C934202D2E05C0028F9D1B6
:1003F000A869E618C01AA861286A18442862284625
:10040000FFF7BCFF04E0D5E9012114F8010B904788
:10041000B442F8D32846FFF7C7FF70BD2DE9F0417D
:100420000646002410687529314616A510D0AFF392
:100430000080002802DA404213A507E031688A07ED
:1004400001D512A502E0490704D511A5012401E058
:10045000AFF3008000210A2206F1240709E0B0FB77
:10046000F2FCB0FBF2F302FB1C003030785418466B
:10047000491C0028F3D123462A463046BDE8F04106
:1004800000F08FBA000000002D0000002B000000DB
:1004900020000000F0B40D460188090502D51B4C70
:1004A0007C4402E0194C7C440E34002100F124030A
:1004B00005E002F00F061209A65D5E54491C002AF1
:1004C000F7D102780023120704D5702D06D009B1A8
:1004D000022311342246F0BC00F063BA0123103429
:1004E000F8E770B504460D4621461068AFF300806A
:1004F000024629462046BDE87040CBE703681268F3
:1005000043F0200303600823C361C3E756D1000012
:100510002DE9F05F894604464FF0000ADFF824B168
:10052000FB44C0F820A02046E168884700287DD021
:10053000252806D0D4E901219047206A401C20627A
:10054000F1E700255F462046E168884720280646F7
:1005500007DB312E05D2B81910F8200C08B105437D
:10056000F1E7A80701D525F00405C4F81CA0002771
:10057000C4F818A02A2E09D0304603F0E7FE38B39D
:1005800004EB8708303EC8F8186019E059F8041BDE
:10059000204604EB87029161E1688847012F0646F7
:1005A00018D1E069002820DA25F020051DE0D8F8F0
:1005B000180000EB800006EB40003038C8F8180047
:1005C0002046E1688847064603F0C0FE0028EED1C9
:1005D000012F0AD02E2E08D12046E16888477F1CC3
:1005E0000646022F45F02005C4DBA069002803DA87
:1005F000404245F00105A061E80701D025F0100553
:10060000A6B1A6F14100192802D8203645F40065AC
:100610004A463146204625604D46FFF7E3FD60B16E
:10062000012807D0ED1D25F0070000E007E000F1EC
:10063000080978E705F1040975E730467AE7206A8A
:10064000BDE8F09FFED0000030B505460B462A46B7
:1006500013F8014B12F8010B08B1A042F8D01CB1FD
:10066000002802D06D1CF1E7284630BD40EA0103A6
:1006700010B59B070FD1042A0DD310C808C9121F4B
:100680009C42F8D020BA19BA884201D9012010BD85
:100690004FF0FF3010BD1AB1D30703D0521C07E052
:1006A000002010BD10F8013B11F8014B1B1B07D1B6
:1006B00010F8013B11F8014B1B1B01D1921EF1D127
:1006C000184610BD10B5431C02E010F8011B71B1B3
:1006D0008107FAD14FF0013202C88C1A8C4314EA18
:1006E000C211F9D0C01A0A0603D0C01E10BDC01A2C
:1006F00010BD0A0401D0801E10BD0902FCD0401EAE
:1007000010BD002101E0801C491C0288002AFAD19A
:1007100008467047032A40F2308010F0030C00F0C6
:10072000158011F8013BBCF1020F624498BF11F82B
:1007300001CB00F8013B38BF11F8013BA2F10402E4
:1007400098BF00F801CB38BF00F8013B11F003035C
:1007500000F02580083AC0F0088051F8043B083AC0
:1007600051F804CBA0E80810F5E7121D5CBF51F862
:10077000043B40F8043BAFF30080D20724BF11F8DC
:10078000013B11F801CB48BF11F8012B24BF00F841
:10079000013B00F801CB48BF00F8012B704710B5B2
:1007A000203AC0F00B80B1E81850203AA0E8185069
:1007B000B1E81850A0E81850BFF4F5AF5FEA027C2A
:1007C00024BFB1E81850A0E8185044BF18C918C099
:1007D000BDE810405FEA827C24BF51F8043B40F83A
:1007E000043B08BF7047D20728BF31F8023B48BF1F
:1007F00011F8012B28BF20F8023B48BF00F8012B5D
:10080000704702F0FF0343EA032242EA024200F08B
:1008100002B84FF000020429C0F0128010F0030C5F
:1008200000F01B80CCF1040CBCF1020F18BF00F8E3
:10083000012BA8BF20F8022BA1EB0C0100F00DB892
:100840005FEAC17C24BF00F8012B00F8012B48BFF0
:1008500000F8012B70474FF0000200B51346944694
:100860009646203922BFA0E80C50A0E80C50B1F108
:100870002001BFF4F7AF090728BFA0E80C5048BF1C
:100880000CC05DF804EB890028BF40F8042B08BFBA
:10089000704748BF20F8022B11F0804F18BF00F8B6
:1008A000012B704710B5044610F0030F08BF11F07C
:1008B000030F40F015804FF0013E121FC0F20E8072
:1008C00051F8043BA3EB0E0C2CEA030C1CEACE1CE3
:1008D00008BF40F8043BF0D0A1F1040102F104028A
:1008E000521E08DB11F8013B002B00F8013BF7D149
:1008F0001146FFF78EFF204610BD00004FF0013C6F
:1009000050F8042B51F8043B9A4221D1A2EB0C037E
:10091000934313EACC1317D150F8042B51F8043B3E
:100920009A4215D1A2EB0C03934313EACC130BD1DB
:1009300050F8042B51F8043B9A4209D1A2EB0C0366
:10094000934313EACC13DBD04FF00000704700BF95
:10095000D01A01BAB1FA81F101F0180122FA01F0BE
:10096000CB40C1F12001DBB2C0B2C01A2CFA01F3B6
:10097000D11A914311EAC311E6D17047704770470D
:1009800070477047004870471C2A002010B500F0DF
:10099000E7FA006810BD10B5044600F0E1FA046003
:1009A00010BD2DE9F0470D4699469246044600F1E8
:1009B00024080168880604D5E06921F0100121604F
:1009C00000E00120A84201DD471B00E00027A169EB
:1009D0007A1902EB0900081AA0612078C00602D437
:1009E0002046FFF7CBFC002608E0D4E901211AF8E5
:1009F00006009047206A401C761C20624E45F4DBBE
:100A00002078C0060AD52046FFF7B8FC06E0D4E9F6
:100A1000012130209047206A401C2062381EA7F137
:100A20000107F4DC07E0D4E9012118F8050090473C
:100A3000206A401C2062281EA5F10105F3DC204637
:100A4000FFF7B2FC2078000602D50220BDE8F0874F
:100A50000120FBE770472DE9FF4F0C461E464FF083
:100A6000FF378BB0D2E90001DDF860800A908A463A
:100A7000C1F30A5505B93D46002108464FF0000074
:100A8000BAF1000F00F4400005DA00EB80004FF4EB
:100A9000400101EA50004FEA9059B9F1010F00DD21
:100AA000B9460A9850EA4A000ED044F61050A5F212
:100AB000FF3545432F14B8F1000F1ED07542291E93
:100AC0001EDDC9F100021CE0B8F1010F4FF000007B
:100AD00001D0302103E0F24305E02154401CB04234
:100AE000FBDB30460022002121540B99C1F808801D
:100AF000C1E900200FB0BDE8F08FBD1B6D1CDEE723
:100B00004A4600DA694206A800F0B4FA06AB93E858
:100B1000070003AB83E8070050460A9900F04EFB3C
:100B20008DE80700A0F500501F3800900398002DB5
:100B30000ADD42F21F014A460844002303A903903C
:100B4000684600F0B7FD09E0A0F500504A461F389E
:100B5000002303A90390684600F0C1FD8DE807005B
:100B60000004000C03D04FF0FF30410800E01046B5
:100B7000B8F1000F03D00022009215461EE0751E4A
:100B800005D400F0F1F9303262556D1EF9D5B34647
:100B90000122084302D000227F1C04E02078302884
:100BA00001D100227F1E002A099784D01DE0112D5B
:100BB00007DA00F0D9F9303262556D1C50EA0102B3
:100BC000F5D1084302D00098C8B10EE00021681E9C
:100BD00005E0235C625C63542254401E491C814240
:100BE000F7DBAB46A81B401E0990002004F80B0061
:100BF0000B98099AC0F80880C0E9002B7AE7112603
:100C00004FF0000857E72DE9F04F88460446D21D03
:100C100022F0070191B0D1E90001CDE90A0103F00A
:100C200051F802460B98C00F01D02D2007E0206834
:100C3000810701D52B2002E0202101EAC000032A10
:100C4000099001D0072A05DB03464146204600F003
:100C5000D1F90BE12078800601D5E06900E006209B
:100C6000B8F1650F814606D0B8F1660F18D0B8F11B
:100C7000670F70D131E00020B9F1110F009001DB56
:100C8000112301E009F101030AAA01A90CA8FFF749
:100C9000E2FEDDE90C70002609F10105834647E01C
:100CA00001204B4600904FF000470AAA01A90CA86A
:100CB000FFF7D1FEDDE90DB00C995D46002610B9B5
:100CC00009F101000D18B9EB050003D4C0F1FF369E
:100CD00009F10105A5EB09002BE0B9F1010F01DADB
:100CE0004FF001090020B9F1110F0090484601DDD5
:100CF000112300E003460AAA01A90CA8FFF7ABFEE6
:100D0000DDE90C704D4600268346207800070AD4A2
:100D1000AB4500DA5D4601A8012D04DD411911F84B
:100D2000011C302907D04F4502DA17F1040F04DA0D
:100D3000012082460FE06D1EEEE7002F02DCED1B66
:100D40003E4403E0781CA84200DD7D1CB81B00F186
:100D5000010A4FF000472078000703D4AA4501DBC1
:100D60004FF0FF3A0021B7F1004F0DF143088DF825
:100D7000431024D002202B23002F01DA7F422D23A1
:100D80000A21021EA0F1010000DC5FB197FBF1FC1B
:100D900097FBF1F201FB1C7C17460CF1300C08F8B4
:100DA00001CDEEE7A8F1010003702188090501D506
:100DB000452100E06521A0F1010800F8011C099817
:100DC0000FA9A1EB0807FF1D00B10120411901EB9C
:100DD000EA70A1693844081A401EA0612078C00654
:100DE00002D42046FFF7CAFA099828B1D4E90121B4
:100DF0009047206A401C20622078C00622D52046F9
:100E0000FFF7BCFA1EE0002E04DBB34502DD01A8AB
:100E1000805D00E03020D4E901219047206A401C29
:100E20002062761CAAF101005FEA000A0AD100F0F4
:100E300093F8C0680168405CD4E901219047206ABA
:100E4000401C2062281EA5F10105DCDC07E0D4E986
:100E5000012118F8010B9047206A401C2062381EBF
:100E6000A7F10107F3DC2046FFF79EFA032011B03B
:100E700041E6000001694A1C02610878704700B52C
:100E80008FB0CDE901310021059105497944CDE9C3
:100E9000031011466846FFF73BFB0FB000BD000092
:100EA000E5FFFFFF0A6802F8010B0A607047D1E90D
:100EB00000239A4202D2531C0B601070704710B589
:100EC000436913B1AFF3008001E0FFF77EFA012020
:100ED00010BD127800F124010A7000224A7001222C
:100EE000EDE711684FF0FF32E9E70000074B70B5FE
:100EF0000D467B44FFF7C3FF0446284600F02CF95B
:100F000010B14FF0FF3070BD204670BD7743000038
:100F100001698A1C02610888704700B58FB0CDE96D
:100F200001310121059105497944CDE903101146AC
:100F30006846FFF7EDFA0FB000BD0000E5FFFFFFC8
:100F4000D1E900239A4202D2931C0B6010807047B3
:100F500000487047142A002000487047342A0020B7
:100F600000487047142A002030B5B0F10A024FEA59
:100F7000900E71F100034EEA817EB0EB0E0061EB42
:100F800091014FEA101E4EEA017E10EB0E0041EB7C
:100F900011114FEA102E4EEA016E10EB0E0041EBDC
:100FA00011214FEA104E4EEA014E10EB0E0041EBBC
:100FB0001141401841F100014FEAD00040EA417070
:100FC0004FEAD10110EB80054FEA810444EA9074A6
:100FD00044EB01046D1944EB0404521BA3414FF090
:100FE000000348BF0A3200D530BD401C41F100016A
:100FF00030BD00002DE9F0411F460446032601687C
:10100000072A01F4006004DB08B116A505E016A567
:1010100003E008B115A500E015A521F0100020603F
:10102000A069C01EA0610FB1401EA0612046FFF75D
:10103000A5F94FB1D4E9012138469047206A401CF8
:101040002062C01C206206E0206AFAE7D4E9012190
:1010500015F8010B9047761EF8D22046FFF7A4F949
:10106000BDE8F0814E414E006E616E00494E460073
:10107000696E66002DE9F047814616468AB035480C
:1010800078440DC88DE80D0032487844801C03ACCC
:101090000DC884E80D0041F69B300844372190FBD1
:1010A000F1F290FBF1F5A5F1800501FB12041B3C68
:1010B00002D56442012000E00020DFF898A08046BD
:1010C0000027FA44AAF1BE0A0EE0E0070AD0324631
:1010D000684607EB470101230AEB810100F0FFFAA4
:1010E0008DE8070064107F1C002CEED1194F7F445F
:1010F000AE3F19E0E80715D007EB04100DF1180A10
:1011000090E80E008AE80E00C068F04201D19819FC
:1011100008903246012306A903A800F0E0FA03ABC9
:1011200083E807006D10641C002DE3D14FF001032C
:1011300032466946B8F1000F03A802D000F0BAFAAF
:1011400001E000F0CCFAC9E90001C9F808200AB0B2
:10115000BDE8F087E0C70000007B00F0800070472A
:101160007546FFF7F5FEAE4605006946534620F08A
:101170000700854618B020B5FFF76EF8BDE820409F
:101180004FF000064FF000074FF000084FF0000B43
:1011900021F00701AC46ACE8C009ACE8C009ACE8F6
:1011A000C009ACE8C0098D46704710B50446AFF3DE
:1011B00000802046BDE81040FFF73AB85FEA400CD7
:1011C00008BF91F0000F4FEA8C234FEAC12243EA97
:1011D00051514FEA1C5018BF00F5F0404FEA300063
:1011E00018BF41F000415FEA6C5C00F02980BCF15F
:1011F000FF3F08BF40F080407047130C06BF120449
:101200004FF0100C4FF0000C130E04BF12020CF143
:10121000080C130F04BF12010CF1040C930F04BF50
:1012200092000CF1020CD30F04BF52000CF1010C20
:1012300011464FF00002A0F11F00A0EB0C00704718
:1012400011F0004F08BF704731F000413FF4D5AFB7
:101250000B0C06BF09044FF0100C4FF0000C0B0EE6
:1012600004BF09020CF1080C0B0F04BF09010CF1BB
:10127000040C8B0F04BF89000CF1020CCB0F04BFD0
:1012800049000CF1010CCCF12003A0EB0C0022FA78
:1012900003F302FA0CF241EA030100F10100704786
:1012A00020F07F4C80EA030023F07F47ACEB07037C
:1012B00003F57C5300F0004003F1FF032DE9804962
:1012C0004FEA154B09B44FEA144325EA0B4E24EAC2
:1012D00003480FF2042606EB132749083E785FEA1D
:1012E000320203FB0667C7F5000707FB06F64FEA65
:1012F00054374FEAD64606F1020607FB066CCCF1DE
:10130000005C4FEA1C472CEA074C07FB06F40CFB79
:1013100006F504EB15464FEA961634BF00204FF051
:1013200000404FEAD13706FB07FC4FEA1C4C0CFB90
:101330000BF7D21B03FB0CF761EB07010CFB0EF75D
:10134000B0EB074072EB17420CFB08F734BFA2EB7F
:101350000742B2EB074261EB17414FEA0C444FEAF8
:10136000910706FB07FC4FEA1C4C0CFB0BF7B0EB9C
:10137000C74072EB573203FB0CF734BFA2EBC742F6
:10138000B2EBC74261EB57310CFB0EF7B0EBC70075
:1013900072EB57720CFB08F734BFA2EBC702B2EB3B
:1013A000C70261EB5771039F4FEA816141EA9211D5
:1013B00004EBCC044FEAD1374FEA826206FB07FC0C
:1013C00042EA90124FEA80604FEA1C4C0CFB0BF78C
:1013D000D21B03FB0CF761EB07010CFB0EF7B0EB24
:1013E000074072EB17420CFB08F734BFA2EB074231
:1013F000B2EB074261EB17414FEA8C554FEA910778
:1014000004EB9C2406FB07FC4FEA1C4C0CFB0BF77F
:10141000B0EBC74072EB573203FB0CF734BFA2EBC3
:10142000C742B2EBC74261EB57310CFB0EF7B0EB92
:10143000C70072EB57720CFB08F734BFA2EBC70270
:10144000B2EBC70261EB577115EB4C254FEA816196
:1014500041EA92114FEA82624FEAD13742EA901292
:1014600006FB07FC44F100044FEA80604FEA1C4C85
:101470000CFB0BF7D21B03FB0CF761EB07010CFB1A
:101480000EF7B0EB074072EB17420CFB08F734BFC6
:10149000A2EB0742B2EB074261EB174115EB1C15BB
:1014A0004FEA813141EA92414FEA823242EA904268
:1014B0004FEA80304FEA0C7644F1000448EA0343D7
:1014C0004EEA0B484FF0000EB2EB080C71EB03072D
:1014D00024BF624639464EEB0E0E4FF0000B00184B
:1014E000524149414BEB0B0BB2EB080C71EB03077C
:1014F0007BF1000B24BF624639464EEB0E0E4FF0D7
:10150000000B0018524149414BEB0B0BB2EB080C9E
:1015100071EB03077BF1000B24BF624639464EEBAB
:101520000E0E51EA020718BF46F0010616EB0E76C2
:1015300055F1000254F1000103D5BDE88901BDE871
:101540000088BDE88901BDE80048B619524141EB69
:101550000101A3F10103704780807F7E7D7C7B7A4F
:101560007978777676757473727171706F6E6E6D4F
:101570006C6C6B6A6A6968686766666564646363F5
:1015800062616160605F5F5E5E5D5D5C5C5B5B5A7B
:101590005A595958585757565655555554545353E8
:1015A00052525251515050504F4F4F4E4E4D4D4D43
:1015B0004C4C4C4B4B4B4A4A4A494949484848478E
:1015C00047474746464645454544444444434343CC
:1015D0004342424242414141002B9C4630D4770075
:1015E0002BD01CB54FEA370703B44FF010004FF073
:1015F0001001BAF1000F06D0BCF1000FDCBF40F0C3
:10160000080040F008014FF000000FBCBDE810409A
:101610000BF1010BBBF1010F08BF5FEA170722BFF7
:1016200012F1010211F101014FF0004143F10003F9
:1016300000F0004043EA00007047F9D35708D0E7B4
:1016400046EA064613F1400F4FEA16461FDD13F136
:10165000200FDFBF16430A46002120335B42BED075
:10166000C3F1200746EA064602FA07F74FEA164694
:1016700046EA0706C3F1200722FA03F201FA07F748
:1016800021FA03F14FF0000342EA0702A7E746EA16
:10169000020646EA06464FEA164646EA0106BCBF7F
:1016A00046EA0646360C4FF000034FF000024FF0BA
:1016B000000194E72DE9804C9A46934670B491E876
:1016C000380007C831EA400C48BF34EA430C03D560
:1016D000FFF7E6FDFFF780FFF0BCBDE8008C2DE9C9
:1016E000804C9A46934670B491E8380007C810F0D1
:1016F000804F08BF13F0804F03D100F005F8FFF7CB
:101700006BFFF0BCBDE8008C20F07F4780EA03004F
:1017100023F07F4C07EB0C03A3F57C5300F0004053
:10172000A3F1FE0392F0000F00F0B38095F0000FDC
:1017300000F077802DE901494FEA11404FEA144645
:1017400021EA004800FB06FC24EA064708FB06F6EF
:1017500007FB08F800FB07F718EB06484CEB164CA4
:101760004FEA124B18EB07484FEA15464CEB17406F
:1017700022EA0B4E0BFB06FC25EA06470EFB06F69B
:1017800007FB0EFE0BFB07F71EEB064E4CEB164C51
:101790004FF000061EEB074E4CEB174B18EB0B08F7
:1017A00040F1000018EB0E0B58EB000840F1000070
:1017B0008F1A4FF000013CBFC943661B14BFB5EB45
:1017C000040C00213CBFC943F61B4FEA17444EEA04
:1017D0008E0E27EA04454FEA1C4704FB07622CEAF9
:1017E000074C05FB07F70CFB05F604FB0CFC16EB9E
:1017F000074642EB174216EB0C4642EB1C421BEB32
:10180000060658EB0202414146EA9E0601D5BDE8B4
:101810000189B619524141EB0101A3F10103BDE871
:1018200001894FEA14454FEA114724EA054621EAA7
:10183000074C05FB07F406FB07F70CFB06F105FB5D
:101840000CFC11EB074144EB17444FEA124711EB34
:101850000C4144EB1C4422EA074C05FB07F206FB53
:1018600007F70CFB06F605FB0CFC16EB074642EBF4
:10187000174216EB0C4642EB1C456A1854F1000166
:1018800048BF7047B619524141EB0101A3F1010372
:10189000704795F0000F37D04FEA11424FEA1447D6
:1018A00021EA024624EA074C02FB07F106FB07F790
:1018B0000CFB06F402FB0CFC14EB074441EB174154
:1018C0004FEA154714EB0C4441EB1C4125EA074C49
:1018D00002FB07F506FB07F70CFB06F602FB0CFC08
:1018E00016EB074645EB174516EB0C4645EB1C423D
:1018F000121951F1000148BF7047B619524141EB2E
:101900000101A3F1010370474FEA14454FEA114763
:1019100024EA054621EA074C05FB07F106FB07F719
:101920000CFB06F24FF0000605FB0CFC12EB074225
:1019300041EB174112EB0C4251EB1C4148BF704781
:10194000921841EB0101A3F10103704700BFFEE7CC
:1019500013B582B00446012003A903462246CDE90F
:101960000010D02101F038F81FBD000010B504466A
:1019700024B1012C20D0022C5AD13BE02E4800EBA0
:101980000410007B50B92C4A02EB041291882A4AB9
:1019900002EB0412106800F088FB09E0264A02EB13
:1019A00004129188244A02EB0412106800F07FFBB5
:1019B0000020224908703CE01F4800EB0410007B27
:1019C00050B91D4A02EB041291881B4A02EB041223
:1019D000106800F06AFB09E0174A02EB04129188D4
:1019E000154A02EB0412106800F061FB0020134955
:1019F00008701EE0104800EB0410007B50B90E4A3E
:101A000002EB041291880C4A02EB0412106800F0F9
:101A10004CFB09E0084A02EB04129188064A02EBEB
:101A20000412106800F043FB00200449887000E0B5
:101A300000BF00BF10BD0000BC000020A8000020B7
:101A400010B500241548006820F470201349086080
:101A50000846006840F40020086004E0601CC4B23E
:101A6000012003F0DEF90E48006808B1C82CF5DB50
:101A7000C82C01DB012010BD002404E0601CC4B2AE
:101A8000012003F0CEF90648006808B9F02CF5DB18
:101A9000F02C01DB0120EEE70020ECE7000C014018
:101AA000108121422DE9F84F00F0CEF800F0AAF89D
:101AB000FFF7C6FFCC2000F0D3F8BE2000F0D0F82E
:101AC00000F08EF8834600F08BF80446072C08DD02
:101AD000E043C4B26FEA0B0000F0FF0B4FF0000AC6
:101AE00001E04FF0010AA1464FEA09200FFA80F900
:101AF00009EB0B000FFA80F9484609F09BFE0090B5
:101B000009F0CCFC07460022084B09F00FF9054606
:101B100009F076F80FFA80F9BAF1000F02D04846C2
:101B2000BDE8F88FC9F1000000B2F9E70000E43F1A
:101B300008B50121082001F0E5FD0121084601F06A
:101B4000E1FD0121094800F05FFA1020ADF8000026
:101B50008DF8030003208DF802006946044800F068
:101B6000C7F900F04FF8FFF76BFF08BD0002300027
:101B7000000C014010B51748006820F4702015498A
:101B800008600846006840F44030086000201249B0
:101B90000860022003F045F901201049C1F89001C6
:101BA0000C48006820F470200A4908600846006864
:101BB00040F4002008600C2003F033F90648803818
:101BC000006808B1012400E00024322003F029F964
:101BD000204610BD000C014090812142008021422E
:101BE00070B50026012508E0FFF7C4FF0446E001B8
:101BF00040EA6600C6B2681CC5B2082DF4DD304666
:101C000070BD000010B50D48006820F470200B492D
:101C100008600846006840F4403008600020084929
:101C2000086040F2EE2003F0FCF801200549C1F8FD
:101C300090010F2003F0F5F810BD0000000C0140EA
:101C4000908121420080214210B5FFF7DBFFFFF7B2
:101C5000F7FECC2000F004F8442000F001F810BD9D
:101C600070B504461848006820F4702016490860D2
:101C70000846006840F440300860012520E004F088
:101C8000010664106EB1002010490860022003F0C4
:101C9000C8F801200E49C1F890013C2003F0C1F8BA
:101CA0000CE00020094908603C2003F0BAF801204C
:101CB0000749C1F89001022003F0B3F8681CC5B2CF
:101CC000082DDCDD70BD0000000C01409081214238
:101CD000008021427047000004490978002904DD92
:101CE00002490978491E014A11707047D401002049
:101CF00010B5202000F002F810BD00000149086076
:101D00007047000014040140002123498279002A11
:101D10003AD00A46126803689A430B461A600A1DB5
:101D2000126803689A430B1D1A60027911440A680D
:101D300003681A430A60184A0832126803689A4313
:101D4000154B08331A601A1D126803689A43124B28
:101D50000C331A604279102A0ED11A1F12680368D8
:101D60001A430D4B08331A601A1D126803681A4390
:101D7000094B0C331A600DE00749427911440A6897
:101D800003681A430A6005E0027911440A6803688F
:101D90009A430A60704700000004014030B50446D1
:101DA00004254FF4302000F06FF80546042D17D1BC
:101DB0000C48006940F002000A4908610846446185
:101DC000006940F0400008614FF4302000F05CF8FA
:101DD00005460448006941F6FD7108400149086163
:101DE000284630BD0020024004200B49C96801F09C
:101DF000010109B101200EE00749C96801F00401A1
:101E000009B1022007E00449C96801F0100109B1D5
:101E1000032000E0042070470020024003480069CE
:101E200040F0800001490861704700000020024036
:101E300070B504460D460426F00200F025F806466B
:101E4000042E11D10948006940F0010007490861DA
:101E50002580F00200F018F806460448006941F6B3
:101E6000FE71084001490861304670BD0020024003
:101E700002480349486003484860704723016745AA
:101E800000200240AB89EFCD00B502460423FFF7E6
:101E9000ABFF034603E0FFF7A7FF0346521E012BEB
:101EA00001D1002AF7D102B90523184600BD000070
:101EB00030B500228B071C0F0F2303FA04F20B4BE3
:101EC0008C1053F824309343084C8D1044F825307F
:101ED00023468C1053F824308C07240F00FA04F4A6
:101EE0002343024C8D1044F8253030BD08000140DA
:101EF0002DE9F041024600250026002000230024A1
:101F0000002791F803C00CF00F0591F803C00CF006
:101F1000100CBCF1000F03D091F802C04CEA05058B
:101F200091F800C0BCF1000F31D0146800202BE004
:101F30004FF0010C0CFA00F3B1F800C00CEA0306F4
:101F40009E4220D183004FF00F0C0CFA03F7BC43E4
:101F500005FA03FC4CEA040491F803C0BCF1280F15
:101F600006D14FF0010C0CFA00FCC2F814C00AE0D4
:101F700091F803C0BCF1480F05D14FF0010C0CFAE9
:101F800000FCC2F810C0401C0828D1D31460B1F87E
:101F900000C0BCF1FF0F34DD546800202EE000F1DA
:101FA000080C4FF0010808FA0CF3B1F800C00CEA75
:101FB00003069E4221D183004FF00F0C0CFA03F769
:101FC000BC4305FA03FC4CEA040491F803C0BCF1DD
:101FD000280F05D100F1080C08FA0CF8C2F814809B
:101FE00091F803C0BCF1480F07D100F1080C4FF085
:101FF000010808FA0CF8C2F81080401C0828CED35B
:102000005460BDE8F0810000F0B50A4600230024CA
:102010000021002500F00046B6F1004F02D11D4E10
:10202000F16901E01B4E7168C0F3034583B200F40F
:102030004016B6F5401F08D121F07061154E766844
:1020400026F07066134F7E6012E000F48016B6F53D
:10205000801F06D1032606FA05F4A14341F0706102
:1020600006E0460D360103FA06F6B14341F0706111
:1020700022B1460D360103FA06F6314300F0004660
:10208000B6F1004F02D1034EF16101E0014E7160E3
:10209000F0BD0000000001400246002093680B40A4
:1020A0000BB1012000E000207047416170470161E1
:1020B00070472DE9FE4F05460C4616461F46DDF8D3
:1020C0003090C4F1800000EBD0714FEA610AC4F196
:1020D000800000EBD07104EB6101A1F1010BA84677
:1020E000A819401E0290CDE900795A464146504653
:1020F000029B00F02FF8BDE8FE8F2DE9F041054668
:102100000C4616460027A8462046FEF7DBFA80213B
:10211000A1EBC0004708334622464146384600F04E
:10212000BBFABDE8F081000002460020002100BF9C
:102130000BE0002105E0064B03EBC0135A544B1C87
:10214000D9B28029F7DB431CD8B20828F1DB7047ED
:10215000BC1500202DE9F04F8BB007460C46934686
:102160009946159D00200A900026099082468046D7
:1021700008900790BA46A3E0A0469CE005F0040052
:1021800028B10BEB0700A0EB0A00089001E0CDF8A6
:1021900020A0002683E005F0080030B109EB040020
:1021A000A0EB0800801B079002E008EB06000790F8
:1021B0000A991498405CB04000F08000099005F046
:1021C000010010B1099800B967E005F0020028B1DC
:1021D000099808B9012000E00020099005F01000DE
:1021E00018B905F02000002851D00799081B09F004
:1021F00021FB029035488169029809F07BFB04902D
:102200000899C81B09F016FB0090304841690098F6
:1022100009F070FB0290384609F00CFB019002991E
:1022200009F068F90390049909F062FC0690079997
:10223000081B09F0FFFA029024484169029809F04E
:1022400059FB04900899C81B09F0F4FA00901F4844
:102250008169009809F04EFB0290204609F0EAFAE5
:102260000190029909F046F90390049909F042F9A6
:102270000590059809F0A2FA0490069809F09EFAD4
:1022800003900146049A099800F0CEF904E0DDE9D4
:102290000721099800F0C8F900BF701CC6B2082ECB
:1022A00004DAA9EB0800B0423FF775AF0A98401C6A
:1022B0000A9008F10808C845FFF660AF0AF1010A64
:1022C000DA45FFF659AF0BB0BDE8F08FBC1900201E
:1022D0002DE9F04F89B082468B4617469846129EEC
:1022E0000025002400200890079006900590814664
:1022F000A7F12000C7B200BFC9E0B8F1100F09D1A3
:1023000006F0040020B1C5F10800C0B208900DE04D
:1023100008950BE0062D00DBBCE006F0040020B1C0
:10232000C5F10600C0B2089000E008950024A8E0BE
:10233000B8F1100F20D106F0080020B1C4F1100050
:10234000C0B2079000E007942046E21704EB5272F7
:10235000D21005EB071303EBC202504B9A5C2146E7
:10236000E31704EB5373DB10A4EBC30C012303FA54
:102370000CF302EA030915E0082C00DB84E006F008
:10238000080020B1C4F10800C0B2079000E0079433
:1023900007EB4700424901EB4000415D0120A040AE
:1023A00001EA000906F0010018B1B9F1000F00D1EF
:1023B00065E006F0020030B1B9F1000F01D1012053
:1023C00000E00020814606F0100010B906F0200061
:1023D000E8B3079809F046FA0290324881690298FA
:1023E00009F088FA0490089809F03CFA01902D4809
:1023F0004169019809F07EFA02902A480168029822
:1024000009F078F80390049909F072FB0690079898
:1024100009F028FA029023484169029809F06AFA03
:102420000490089809F01EFA01901E4881690198ED
:1024300009F060FA02901B484168029809F05AF8C6
:102440000390049909F056F80590059800E00CE017
:1024500009F0B4F90490069809F0B0F90390014628
:102460004846049A00F0E0F808E0079800EB0B02F9
:10247000089800EB0A01484600F0D6F800BF601C3F
:10248000C4B2102CFFF654AF00BF681CC5B2082DB3
:10249000FFF633AF00BF09B0BDE8F08F48C20008B7
:1024A00020C00008BC1900202DE9F04F87B08046FD
:1024B000894692461D4600260024A3460020069029
:1024C00005900490002700BF9CE005F0040020B1B7
:1024D000C6F1100000F0FF0B01E006F0FF0B002436
:1024E0008CE005F0080020B1C4F11000C0B20690E5
:1024F00001E0E0B206902046E21704EB5272D210DF
:1025000006EB02130AEB0A12DFF804C10CEB4202DD
:10251000921CD25C2146E31704EB5373DB10A4EB4F
:10252000C30C012303FA0CF302EA030705F00100D0
:1025300008B107B961E005F0020020B10FB9012030
:1025400000E00020074605F0100018B905F0200053
:10255000002849D0069809F085F901902D48816935
:10256000019809F0C7F90390584609F07BF90090EB
:1025700028484169009809F0BDF901902548016893
:10258000019808F0B7FF0290039909F0B1FA05909D
:10259000069809F067F901901E484169019809F011
:1025A000A9F90390584609F05DF90090194881692E
:1025B000009809F09FF9019016484168019808F0C9
:1025C00099FF0290039908F095FF0490049809F090
:1025D000F5F80390059809F0F1F8029001463846A5
:1025E000039A00F021F807E0069800EB09020BEBD4
:1025F0000801384600F018F800BF641C102CFFF6E4
:1026000070AF761C102EFFF660AF07B0BDE8F08FFC
:1026100038C80008BC19002010B5024800F0CDFFF2
:1026200010BD0000BC150020F0B5054600200026B6
:10263000012300292DDB80292BDA002A29DB402AFF
:1026400027DA1446D71702EB5777C7F3C700D71717
:1026500002EB5777FF10A2EBC707FEB203E05C0660
:10266000230E741EE6B2002EF9DC0A4C04EBC014F3
:10267000645C9C43074F07EBC0177C54002D08DDBA
:10268000044C04EBC014645C1C43024F07EBC017FE
:102690007C54F0BDBC1500202DE9F84F0746894653
:1026A000154698464FF0000B2846FEF70BF800F051
:1026B000FF0A00242CE0285D7F2809DCCDF800808B
:1026C0002A5D102349463846FFF702FE08371DE011
:1026D000285D7F281ADD28194078295D40EA012B02
:1026E000002611E006EB06100B4931F810005845A2
:1026F00008D14346324649463846FFF7D5FE1037E3
:10270000601CC4B2701CC6B2512EEBD3601CC4B2A4
:102710005445D0DBBDE8F88F38C80008F0B5044652
:102720000D461E4600232046114604B9F0BD15E0B3
:10273000AB420AD107782C2F07D0077801F8017B2C
:1027400097197F1E8F4203D80BE0AB4200DD08E0F3
:1027500007782C2F01D15F1CBBB2401C0778002FDB
:10276000E6D100BF00270F7000BFDFE770B5054658
:1027700005EB85000F4901EB401000F15404284699
:10278000216888472846616988472846A1688847A4
:1027900028466169884728466168884728466169F4
:1027A000884728462168884728466169884700206D
:1027B00070BD0000AC28002010B504460A2002F0CD
:1027C00030FB10BD2DE9F04705460E4617469846EA
:1027D000DDF8209005EB8500254901EB401000F164
:1027E000540402F051FD08B9BDE8F08705EB8500FF
:1027F0001F4901EB4010066005EB850001EB40101E
:10280000476005EB850001EB4010C0F8088005EB40
:10281000850001EB4010C0F80C9016482060164867
:1028200060601648A0601648E060164820611648AF
:1028300060611648A0611648E0611648206216489B
:1028400060621648A0621648E06216482063164887
:1028500060631648A0631648E06316482064164873
:1028600060641648A0642846A169884700BFBBE79A
:10287000AC2800200D2C0008352C00085D2C000829
:10288000852C0008AD2C0008B9270008952E0008FB
:10289000412D00088D2D00086D270008C12A000871
:1028A0004D2E0008DD2C00080D2B0008ED2B000834
:1028B000D92D0008712B0008D9290008C12800086B
:1028C0002DE9F05F80460E4615469946DDE90AA7D8
:1028D00008EB88003F4901EB401000F154044FF031
:1028E000000B4046A16988474046216A8847404618
:1028F000E169884710B14FF0FF3B69E006F0FE0147
:102900004046226B90474046E16A884728B14046DE
:10291000216A88476FF0010B5AE0B9F1010F0DD120
:10292000E9B24046226B90474046E16A884708B3C7
:102930004046216A88476FF0020B49E0290A404669
:10294000226B90474046E16A884728B14046216A99
:1029500088476FF0030B3BE0E9B24046226B90479B
:102960004046E16A884728B14046216A88476FF0AF
:10297000040B2DE04046E1698847F0B240F00101C8
:102980004046226B90474046E16A884728B140465E
:10299000216A88476FF0050B1AE011E04046616B31
:1029A00088478AF80000012F03D14046A16A884772
:1029B00002E04046616A88470AF1010A781E87B240
:1029C000002FEBD14046216A88470020BDE8F09FE8
:1029D0005846FBE7AC2800202DE9F05F06460F467D
:1029E00015469846DDE90A9A4FF0000B06EB860083
:1029F000324901EB401000F154043046216A884707
:102A00003046E169884710B14FF0FF3B53E007F0D3
:102A1000FE013046226B90473046E16A884728B174
:102A20003046216A88476FF0010B44E0B8F1010F8E
:102A30000DD1E9B23046226B90473046E16A8847B3
:102A400008B33046216A88476FF0020B33E0290A49
:102A50003046226B90473046E16A884728B13046BD
:102A6000216A88476FF0030B25E0E9B23046226BFC
:102A700090473046E16A884728B13046216A884746
:102A80006FF0040B17E009E099F800103046226B54
:102A900090473046E16A884709F10109BAF1000020
:102AA000AAF101011FFA81FAEED13046216A884766
:102AB0000020BDE8F09F5846FBE70000AC2800204E
:102AC00070B5054605EB85000F4901EB401000F19C
:102AD0005404284621688847284661698847284663
:102AE000E1688847284661698847284661688847C1
:102AF00028466169884728462168884728466169D1
:102B00008847002070BD0000AC2800202DE9F0416E
:102B100006460827002506EB8600144901EB401005
:102B200000F154043046E168884713E06806050E5A
:102B30003046216888473046616988473046616879
:102B4000884730466169884730462169884708B11F
:102B500045F00105381EA7F10101CFB2E6D130469C
:102B6000216888472846BDE8F0810000AC28002095
:102B70002DE9F0410746884616461D4607EB8700BB
:102B8000194901EB401000F154043846E1698847C7
:102B900000B127E008F0FF0040F001013846226B49
:102BA00090473846E16A884718B13846216A884715
:102BB00018E00FE03846616B88473070012D03D173
:102BC0003846A16A884702E03846616A8847761C21
:102BD000681E85B2002DEDD13846216A8847002055
:102BE000BDE8F0810120FBE7AC28002070B5044669
:102BF00004EB8400044901EB401000F15405204629
:102C0000296A8847002070BDAC28002010B5044612
:102C100004EB8402064B03EB4212928991B204EB5F
:102C2000840203EB42129068FFF73FFA002010BDC8
:102C3000AC28002010B5044604EB8402064B03EBDD
:102C40004212928991B204EB840203EB4212906823
:102C5000FFF72DFA002010BDAC28002010B5044667
:102C600004EB8402064B03EB4212928891B204EB10
:102C7000840203EB42121068FFF717FA002010BD20
:102C8000AC28002010B5044604EB8402064B03EB8D
:102C90004212928891B204EB840203EB4212106854
:102CA000FFF705FA002010BDAC28002010B504463F
:102CB00004EB8402084B03EB4212928891B204EBBE
:102CC000840203EB42121068FFF7E6F9012800D1F5
:102CD00010BD0020FCE70000AC2800202DE9F041E9
:102CE00006460D46082706EB8600144901EB401006
:102CF00000F154041AE03046216888473046616983
:102D0000884705F0800018B13046E168884702E046
:102D10003046A16888476806050E304661698847D5
:102D2000304661688847304661698847381EA7F198
:102D30000101CFB2DFD1BDE8F0810000AC28002056
:102D400070B5054605EB85000F4901EB401000F119
:102D500054042846E1688847284661698847284620
:102D6000616888472846616988472846A16888477E
:102D7000284661698847284621688847284661694E
:102D80008847002070BD0000AC28002070B50546C3
:102D900005EB85000F4901EB401000F15404284673
:102DA000216888472846616988472846A16888477E
:102DB00028466169884728466168884728466169CE
:102DC00088472846E1688847284661698847002087
:102DD00070BD0000AC2800202DE9F04106460F46EA
:102DE0001546984606EB8600174901EB401000F1A6
:102DF00054043046E169884700B122E007F0FE0143
:102E00003046226B90473046E16A884718B1304619
:102E1000216A884715E007E029783046226B904701
:102E20003046E16A88476D1CB8F10000A8F1010145
:102E30001FFA81F8F0D13046216A88470020BDE8AA
:102E4000F0810120FBE70000AC28002070B50546AA
:102E500005EB85000E4901EB401000F154042846B3
:102E600021688847284661698847284661688847FD
:102E700028466169884728462169884706462846CA
:102E800021688847284661698847304670BD000040
:102E9000AC28002038B5044600200090012108200D
:102EA00000F030FC14208DF8030004EB8400254969
:102EB00001EB4010808880B2ADF8000003208DF84F
:102EC000020004EB84011F4A02EB411108686946C5
:102ED000FFF70EF814208DF8030004EB8400194965
:102EE00001EB4010808980B2ADF8000003208DF81E
:102EF000020004EB8401134A02EB41118868694621
:102F0000FEF7F6FF04EB84020E4B03EB42129288AD
:102F100091B204EB840203EB42121068FFF7C5F88C
:102F200004EB8402074B03EB4212928991B204EB4B
:102F3000840203EB42129068FFF7B7F8642001F0B7
:102F400065FF38BDAC28002000BFFEE710B5044A7D
:102F50000421044800F092F801200349087010BDD4
:102F6000E53800086C010020680100200348007863
:102F700010B100200149087070470000680100206E
:102F800038B5002400BF54E0002000902A4901EB2E
:102F900004118868012100F0B5FB01212748FFF7E3
:102FA00033F8254800EB04108088ADF800001020AD
:102FB0008DF8030003208DF802001F4901EB041176
:102FC00008686946FEF794FF1B4800EB0410007B7D
:102FD00001280AD1184A02EB04129188164A02EB22
:102FE00004121068FFF763F81EE0134800EB0410AA
:102FF000007B50B9104A02EB041291880E4A02EB92
:1030000004121068FFF751F80EE000200A4901EBA6
:1030100004110873084A02EB04129188064A02EB75
:1030200004121068FFF741F8002005490855601C9C
:10303000C4B2032CA8DB38BDBC0000200002300065
:10304000A800002010B500216B20FEF781FC0721AD
:103050001920FEF77DFC06211A20FEF779FC1821C5
:103060001B20FEF775FC01211C20FEF771FC10BD32
:1030700000BFFEE700487047CC01002003460C4823
:10308000006810B94FF0FF307047094800680069C8
:1030900008B10020F8E706480068036104480068AA
:1030A000017712B102480068C2600020ECE700001E
:1030B000CC01002070B500241F480568006808B9DD
:1030C000601E70BD00F0BAF9041E01D1401EF8E781
:1030D000A97F01EB4101286950F831006060A97FA8
:1030E00001EB4101286900EBC1004068A0600020AD
:1030F00020612077E868E060A97F01EB4101286941
:1031000000EBC10080686061A97F01EB4101286983
:1031100000EBC1000069A0610020A0770120E077EA
:103120002560054804600068406918B102490968D3
:10313000486980470020C4E7CC01002070B50446F0
:1031400020480568006810B94FF0FF3070BD1D4879
:103150000068006810B94FF0FF30F7E719480068C1
:103160000068184908602846FEF7B6FD0025154896
:103170000068006913490968897F01EB410100EB90
:10318000C100C06878B100200E490968C8770D49B0
:10319000096809690B4A1268927F02EB420201EB4F
:1031A000C201C868804707480068406918B10549EE
:1031B0000968486980471CB100200249096888777E
:1031C0000020C3E7CC01002070B505460024164856
:1031D000006808B1601E70BD00201449087000F03E
:1031E0002DF9041E01D1401EF5E700200E4908719B
:1031F000286860606868A06000202060A86860613E
:103200000020E060E868A061002020612077A077BE
:103210006077084604600068406910B10968486931
:1032200080470020D7E70000CC010020D401002017
:1032300001461448006810B94FF0FF30704711483C
:103240000068827F0F480068007F401E824207DAD4
:103250000C480068807F401C0A4A126890770FE093
:1032600021B10020074A1268907709E005480068FC
:10327000007F401E034A126890774FF0FF30DDE771
:103280000020DBE7CC01002001461248006810B99D
:103290004FF0FF3070470F480068807F002807DD3F
:1032A0000C480068807F401E0A4A126890770EE042
:1032B00039B108480068007F401E064A12689077BE
:1032C00005E00020034A12689077401EE2E70020E4
:1032D000E0E70000CC01002030B5ABB03948006811
:1032E00018B94FF0FF302BB030BD36480068006988
:1032F00000285CD033480068056932480068007FC8
:103300008DF804002F480068807F8DF805002D4857
:103310000068407F8DF806002A480079E8B1294806
:10332000006880680290002410E004EB440005EB84
:10333000C000416803A840F8241004EB440005EBEA
:10334000C000416917A840F82410641C9DF80400CF
:10335000A0421EDD142CE8DB1BE01A480068406820
:10336000029000240FE004EB440055F8301003A84D
:1033700040F8241004EB440005EBC000416917A895
:1033800040F82410641C9DF80400A04201DD142CB8
:10339000E9DB0C480068C06820B10A480068C168D1
:1033A00001A888479DF8060006490968487705483E
:1033B0000068806918B1034909688869804700205E
:1033C00091E70000CC0100207047000070B500219B
:1033D00000230F22C47804B3154C246804F4E0647D
:1033E000C4F5E064210AC1F10403CA40447804FA38
:1033F00003F184781440214309010E4C0678A1554D
:10340000047804F01F050124AC4005786D11AD006F
:1034100005F1E025C5F8004109E0047804F01F0536
:103420000124AC40044D0678761145F8264070BD65
:103430000CED00E000E400E080E100E0002007493E
:1034400009780A2909DA0649044A127801EB421080
:1034500002490978491C014A11707047D4010020C3
:10346000581A002070B5002419E004F1B001C8B268
:10347000002100F0BEF80021084600F0BAF8002153
:10348000102000F0B6F8002505E00121002000F032
:10349000B0F8681CC5B2802DF7DB601CC4B2082CE4
:1034A000E3DB70BD10B5142001F0B0FC01F0ECFEC0
:1034B00000B910BD0021AE2000F09BF800210846A5
:1034C00000F097F80021102000F093F80021402030
:1034D00000F08FF80021B02000F08BF8002181204F
:1034E00000F087F80021FF2000F083F80021A120E0
:1034F00000F07FF80021A62000F07BF80021A82032
:1035000000F077F800213F2000F073F80021C82078
:1035100000F06FF80021D32000F06BF8002108467E
:1035200000F067F80021D52000F063F8002180202A
:1035300000F05FF80021D82000F05BF800210520A2
:1035400000F057F80021D92000F053F80021F120B5
:1035500000F04FF80021DA2000F04BF80021122093
:1035600000F047F80021DB2000F043F80021302074
:1035700000F03FF800218D2000F03BF800211420DE
:1035800000F037F80021AF2000F033F800BF90E7DB
:1035900070B504460D4605F1B001C8B2002100F037
:1035A00028F8102141EA1410002100F022F804F05C
:1035B0000F00002100F01DF870BD7CB50546002607
:1035C000002400BF12E021460020FFF7E1FF802128
:1035D000A81901234022CDE9000178210020FFF73E
:1035E000FBF906F1800086B2601CC4B2082CEADB4D
:1035F0007CBD70B505460C461CB1284600F04CFB5E
:1036000002E0284600F033FB70BD000010B5044610
:1036100024B1012C20D0022C5AD13BE02E4800EBE3
:103620000410007B50B92C4A02EB041291882A4AFC
:1036300002EB04121068FEF73AFD09E0264A02EB9D
:1036400004129188244A02EB04121068FEF72DFD43
:103650000120224908703CE01F4800EB0410007B69
:1036600050B91D4A02EB041291881B4A02EB041266
:103670001068FEF71CFD09E0174A02EB041291885E
:10368000154A02EB04121068FEF70FFD01201349E2
:10369000087000BF104800EB0410007B50B90E4AC0
:1036A00002EB041291880C4A02EB04121068FEF738
:1036B000FEFC09E0084A02EB04129188064A02EB7C
:1036C00004121068FEF7F1FC01200449887000E044
:1036D00000BF00BF10BD0000BC000020A8000020FB
:1036E0007047000029B1064AD2690243044BDA61EF
:1036F00004E0034AD2698243014BDA61704700005B
:103700000010024029B1064A92690243044B9A61B3
:1037100004E0034A92698243014B9A6170470000BA
:103720000010024030B500210022002400232D4D5E
:103730006D6805F00C0121B1042905D0082923D1B9
:1037400005E0294D056022E0274D05601FE0254D6D
:103750006D6805F47012234D6D6805F48034022500
:1037600005EB92421CB9214D554305600BE01D4D00
:103770006D6805F400351DB11C4D5543056002E030
:10378000194D5543056002E0174D056000BF00BFAD
:10379000144D6D6805F0F0010909154D6B5C056865
:1037A000DD4045600F4D6D6805F4E061090A104D7C
:1037B0006B5C4568DD4085600A4D6D6805F46051BD
:1037C000C90A0B4D6B5C4568DD40C560054D6D68F1
:1037D00005F44041890B074D6B5CC568B5FBF3F5FB
:1037E000056130BD0010024000127A0000093D0062
:1037F0004800002058000020704710B500F002F883
:1038000010BD00000CB50020019000903348006806
:1038100040F480303149086000BF3048006800F44F
:10382000003000900198401C0190009818B9019850
:10383000B0F5A06FF1D12948006800F4003010B154
:103840000120009001E0002000900098012843D161
:103850002348006840F010002149086008460068CD
:1038600020F0030008600846006840F0020008608D
:103870001A48406819494860084640684860084648
:10388000406840F4806048600846406820F47C103E
:1038900048600846406840F4E81048600846006800
:1038A00040F08070086000BF0C48006800F00070B5
:1038B0000028F9D00948406820F003000749486013
:1038C0000846406840F00200486000BF0348406876
:1038D00000F00C000828F9D10CBD000000100240D7
:1038E0000020024010B50446607810B904F024F9B5
:1038F00010E06078012802D104F06AF80AE06078EC
:10390000022802D104F0FEF804E06078032801D117
:1039100004F0DAF810BD000010B50B480068401C38
:103920000949086003F010FA084801780078401C43
:10393000064A10700A2905DD002011460870044966
:103940008868804710BD00005C00002060000020F7
:103950005801002010B51348006840F001001149DB
:10396000086008464068104908400E49486008460B
:1039700000680E4908400B4908600846006820F4BA
:10398000802008600846406820F4FE0048604FF43C
:103990001F008860FFF731FF4FF0006004490860A6
:1039A00010BD0000001002400000FFF8FFFFF6FE0F
:1039B00008ED00E010B50121880700F009F818B102
:1039C0000121880700F001F810BDCA430282704748
:1039D00030B50246002000230024158A05EA0103C1
:1039E000958905EA010413B10CB1012000E0002023
:1039F00030BD000008B540F22551074800F071F8CD
:103A000048B1054800F028F9C0B20090012269468B
:103A1000024806F07DF808BD00380140640000202F
:103A200070B505460E4600240CE000BF40210A4850
:103A300000F04AF80028F9D0295D074800F011F994
:103A4000601C84B2B442F0DB00BF4021024800F0A9
:103A50003BF80028F9D070BD0038014008B540F2AD
:103A60002551074800F03DF848B1054800F0F4F84A
:103A7000C0B2009001226946024806F049F808BD2C
:103A8000004400407800002008B540F22551074866
:103A900000F027F840B1054800F0DEF8C0B2009011
:103AA0000121684603F09AF808BD00000048004074
:103AB00021B1828942F40052828104E082894DF66C
:103AC000FF731A408281704702460020B1F5007FE3
:103AD00000D100BF13880B400BB1012000E0002093
:103AE000704770B50246002400230025002040F6F0
:103AF0006A16B14200D100BFC1F3421501F01F03A5
:103B0000012606FA03F3012D02D19689334006E01F
:103B1000022D02D1168A334001E0968A33400C12FE
:103B2000012606FA04F41688344013B10CB10120C2
:103B300000E0002070BDF0B50346002400260025FB
:103B4000002040F66A17B94200D100BF1846C1F301
:103B5000421401F01F06012707FA06F5012C01D1D6
:103B60000C3004E0022C01D1103000E014301AB106
:103B700007682F43076002E00768AF430760F0BDA6
:103B80002DE9F04786B005460E460024A24600BF48
:103B9000A1460027B08900B100BF2F462C8A4CF601
:103BA000FF700440F08804432C82AC894EF6F31079
:103BB0000440B08831890843718908430443AC81CB
:103BC000AC8A4FF6FF400440B0890443AC8201A8A0
:103BD000FFF7A8FD1F48874202D1DDF810A001E0E1
:103BE000DDF80CA0A88900F4004040B10AEBCA003F
:103BF00000EB0A1031684900B0FBF1F807E00AEB6E
:103C0000CA0000EB0A1031688900B0FBF1F86420AB
:103C1000B8FBF0F004012009642101FB1089A88998
:103C200000F4004040B1322000EBC900B0FBF1F0DD
:103C300000F00700044308E0322000EB0910642183
:103C4000B0FBF1F000F00F0004432C8106B0BDE89A
:103C5000F08700000038014001468888C0F3080062
:103C60007047C1F308028280704700BFFEE73EB58F
:103C70000446002002908DF808008DF809400121CB
:103C80000DF10900CDE900019DF808200B467821CF
:103C90000020FEF7A1FE3EBD3EB504460020029086
:103CA00040208DF808008DF8094001210DF1090030
:103CB000CDE900019DF808200B4678210020FEF791
:103CC0008BFE3EBD490050EAC12018BF04204A0DBA
:103CD00018BF40F0010040F2FF72B2EB515F08BF25
:103CE00040F00200012808BF052070472DE9F74F7A
:103CF000144694B00021C4E902111599079121F0EE
:103D00000045C9498D4206DC1599C4E9000117B088
:103D10000020BDE8F08FC549DFF814A3A9423CDDBF
:103D20000799C44E0029C44FC44A1599534619DD5A
:103D300007F0CAFA554506D0C14AC24B07F0C4FA8B
:103D4000C4E900010AE04FF0D352BE4B07F0BCFAC1
:103D500032463B4607F0B8FAC4E9000117B001202B
:103D6000BDE8F08F06F038FD554506D0B44AB54B96
:103D700006F032FDC4E900010AE04FF0D352B14B26
:103D800006F02AFD32463B4606F026FDC4E9000156
:103D900017B04FF0FF30BDE8F08FAB49A94215993D
:103DA00078DB21F0004183468846A84AA84B06F0FC
:103DB000BDFF0022A74B06F00FFD06F021FF099082
:103DC00006F04DFF06460F469C4A534606F0AEFFEE
:103DD00043465A4607F086F980468A46984A994BE8
:103DE0003046394606F0A2FF2A0D01250B924246C5
:103DF000534607F077F9032DC4E9000139D00B9839
:103E0000C1F30A51401A05EB45111139814230DAEC
:103E10009148C346784400EB0510CDF80CA00C90F7
:103E2000D0E900233046394606F080FF02460B46B3
:103E3000049106905846039907F046FA80468A4650
:103E400002460B465846039907F03EFA049B069A31
:103E500007F03AFA83460C9803913946D0E90223D9
:103E6000304606F063FF5A46039B07F02DFA6D1C9F
:103E7000BDE707980028A2BF099817B0BDE8F08FEA
:103E8000616881F000416160099817B04042BDE867
:103E9000F08FFFE784461598C1F31301C0F30A5071
:103EA000A0F2F5304FEA601800F01F06C6F12000BE
:103EB000139000200690079041F4801E05206D4667
:103EC00076B1664A08EB00017A4452F8213002EBE1
:103ED0008101B3404A68139922FA01F1194305E0C0
:103EE0005F4908EB0002794451F82210A1FB0E272C
:103EF000A1FB0C131A449A4234BF0123002303EBA5
:103F0000070A05EB8003D3E901B70F448F4234BFA2
:103F10000121002193448B4411B1934502D903E060
:103F2000934501D2012100E00021C3E901B75144CA
:103F300045F82010011EA0F10100C1DC0298059F88
:103F400000F10050800F12900298DDE903568000C6
:103F500006F085FE834628460D9106F097FE6FF029
:103F60001D0207F06EFECDE90E01304606F08EFE12
:103F70006FF03D0207F065FE80468A46384606F03F
:103F800085FE6FF05D0207F05CFE07464246534631
:103F9000119106F021FCDDE90E2306F01DFC5A46C6
:103FA0000D9B06F019FC00250E465A4628460D9B2F
:103FB00007F08AF9DDE90E2307F086F942465346F9
:103FC00007F082F93A46119B07F08CF8DFF898A0C9
:103FD000244A534606F0AAFE07468846234A244B45
:103FE0003146284606F0A2FE3A46434606F0F4FB68
:103FF000074688464FF0A84253463146284606F009
:1040000095FE3A46434606F0E7FB159A12F0004F3C
:1040100004D0129A81F0004152421292C4E9000188
:10402000129817B0BDE8F08FFB21E93F7CD9024020
:10403000FB21F93F7370032E8A19A33B0000405403
:104040003163621A61B4D03DFB21394183C8C96D27
:10405000305FE43F0000E03FE09800005C98000023
:104060003E980000182D4454FB21F93D3326A6113B
:10407000460B113C2DE9FF4D21F0004807460C4648
:10408000B8F1795F08DA06F0BBFD002801BF002017
:10409000324904B0BDE8F08D3A4623461046194631
:1040A00006F044FE054602462D480E460B46062104
:1040B000784400F05DF82A46334606F037FEDDE925
:1040C000022382468B463846214606F02FFE0446E0
:1040D0000F4652465B462846314606F027FE2246EA
:1040E0003B4607F0F1F807468A464FF0FF32284674
:1040F000314607F0A6FD1B4A90450ADA3A46534678
:1041000007F0E2F804B00022BDE8F04D134B06F0D2
:10411000E9BF154A4245A8BFA8F500154FF00004B5
:10412000B8BF124D22462B4607F0CEF80646884609
:1041300022462B460020094907F0C6F804460D46E2
:104140003A4653463046414607F0BEF804B0224690
:104150002B46BDE8F04D06F0C5BF00000000F03F63
:104160000C9600003333D33F0000E93F0000D23FFC
:104170002DE9F0414F1E00EBC7010446D1E90001D3
:1041800015461E4637F006020DD02A46334606F085
:10419000CDFD7F1E04EBC703D3E9002306F01CFB13
:1041A00037F00602F1D1022F25D0042F13D0062FAD
:1041B00018BFBDE8F0812A46334606F0B7FDD4E9C2
:1041C0000A2306F009FB2A46334606F0AFFDD4E980
:1041D000082306F001FB2A46334606F0A7FDD4E982
:1041E000062306F0F9FA2A46334606F09FFDD4E985
:1041F000042306F0F1FA2A46334606F097FDD4E987
:10420000022306F0E9FA2A46334606F08FFDD4E988
:104210000023BDE8F04106F0DFBA00002DE9FF4DB4
:10422000054621F0004084B00C46B0F1795F0BDA0E
:104230002846FFF747FD042808BF00F07FF828460E
:1042400008B02146BDE8F08D2A460B46104606F020
:104250006DFD06460F462A46234606F067FD80465A
:1042600026488A4632463B4605217844FFF780FFC0
:1042700083461098029160B3214A224B4046514632
:1042800006F054FDCDE900015A4640465146029BD6
:1042900006F04CFD82468846DDE906014FF0FF320C
:1042A00007F0CFFC5246434607F00EF832463B4635
:1042B00006F03CFDDDE9062307F006F8DDE9002302
:1042C00007F002F808B02A462346BDE8F04D06F094
:1042D00009BF0B465A463046394606F027FD084AC4
:1042E000084B06F079FA4246534606F01FFD08B027
:1042F0002A462346BDE8F04D06F06EBA52950000FE
:10430000495555555555C5BF00221346104601491C
:1043100006F01EBB0000F03F012207F092BC06F041
:104320005BBA002213461046114606F011BB40F25C
:10433000013200204FF0E04107F083BC024A002028
:10434000110707F07EBC000001FDFFFF30380A288E
:1043500001D2012070470020704700BF70472DE94F
:10436000FF4F9FB083460F469046DBF80490DBF882
:1043700008001E90BBF800000C90DBF804100C98AD
:10438000401E01EB80052298C0080A905AE301CF35
:1043900001C501CF01C501CF01C501CF01C5002075
:1043A0001D901C901B901A901990189017901690C1
:1043B0004C461E9E01CF01C501CF01C501CF01C5ED
:1043C00001CF01C501CC159001CC149001CC139004
:1043D00001CC129001CC119001CC109001CC0F9027
:1043E0000C984FEAD00AA1E201CE0D9001CC0E90BC
:1043F0000D99159807F07EFA09900D99149807F019
:1044000079FA08900D99139807F074FA07900D99AE
:10441000129807F06FFA06900D99119807F06AFA52
:1044200005900D99109807F065FA04900D990F9872
:1044300007F060FA0390DDE90D1007F05BFA0290D7
:1044400001CE0D9001CC159009991D9807F052F8F6
:104450001D9008991C9807F04DF81C9007991B981F
:1044600007F048F81B9006991A9807F043F81A903D
:104470000599199807F03EF819900499189807F0D3
:1044800039F818900399179807F034F817900299A3
:10449000169807F02FF816900D99149807F02AFA3D
:1044A00009900D99139807F025FA08900D99129824
:1044B00007F020FA07900D99119807F01BFA069063
:1044C0000D99109807F016FA05900D990F9807F0BE
:1044D00011FA0490DDE90D1007F00CFA03900D9924
:1044E000159807F007FA029001CE0D9001CC1490B8
:1044F00009991D9806F0FEFF1D9008991C9806F07A
:10450000F9FF1C9007991B9806F0F4FF1B90069981
:104510001A9806F0EFFF1A900599199806F0EAFF2D
:1045200019900499189806F0E5FF189003991798C8
:1045300006F0E0FF17900299169806F0DBFF169040
:104540000D99139807F0D6F909900D99129807F074
:10455000D1F908900D99119807F0CCF907900D99B1
:10456000109807F0C7F906900D990F9807F0C2F957
:104570000590DDE90D1007F0BDF904900D9915982F
:1045800007F0B8F903900D99149807F0B3F9029069
:1045900001CE0D9001CC139009991D9806F0AAFF49
:1045A0001D9008991C9806F0A5FF1C9007991B9870
:1045B00006F0A0FF1B9006991A9806F09BFF1A9030
:1045C0000599199806F096FF19900499189806F025
:1045D00091FF18900399179806F08CFF1790029995
:1045E000169806F087FF16900D99129807F082F939
:1045F00009900D99119807F07DF908900D99109880
:1046000007F078F907900D990F9807F073F9069065
:10461000DDE90D1007F06EF905900D99159807F07A
:1046200069F904900D99149807F064F903900D99B5
:10463000139807F05FF9029001CE0D9001CC129013
:1046400009991D9806F056FF1D9008991C9806F0D0
:1046500051FF1C9007991B9806F04CFF1B90069980
:104660001A9806F047FF1A900599199806F042FF2C
:1046700019900499189806F03DFF1890039917981F
:1046800006F038FF17900299169806F033FF16903F
:104690000D99119807F02EF909900D99109807F0CF
:1046A00029F908900D990F9807F024F90790DDE992
:1046B0000D1007F01FF906900D99159807F01AF9DB
:1046C00005900D99149807F015F904900D99139819
:1046D00007F010F903900D99129807F00BF902906A
:1046E00001CE0D9001CC119009991D9806F002FFA2
:1046F0001D9008991C9806F0FDFE1C9007991B98C8
:1047000006F0F8FE1B9006991A9806F0F3FE1A9030
:104710000599199806F0EEFE19900499189806F07C
:10472000E9FE18900399179806F0E4FE1790029995
:10473000169806F0DFFE16900D99109807F0DAF83B
:1047400009900D990F9807F0D5F80890DDE90D1044
:1047500007F0D0F807900D99159807F0CBF8069060
:104760000D99149807F0C6F805900D99139807F065
:10477000C1F804900D99129807F0BCF803900D99B8
:10478000119807F0B7F8029001CE0D9001CC10906F
:1047900009991D9806F0AEFE1D9008991C9806F028
:1047A000A9FE1C9007991B9806F0A4FE1B90069981
:1047B0001A9806F09FFE1A900599199806F09AFE2D
:1047C00019900499189806F095FE18900399179877
:1047D00006F090FE17900299169806F08BFE169040
:1047E0000D990F9807F086F80990DDE90D1007F094
:1047F00081F808900D99159807F07CF807900D99AD
:10480000149807F077F806900D99139807F072F84E
:1048100005900D99129807F06DF804900D99119874
:1048200007F068F803900D99109807F063F802906C
:1048300001CE0D9001CC0F9009991D9806F05AFEFB
:104840001D9008991C9806F055FE1C9007991B981E
:1048500006F050FE1B9006991A9806F04BFE1A902F
:104860000599199806F046FE19900499189806F0D3
:1048700041FE18900399179806F03CFE1790029994
:10488000169806F037FE1690DDE90D1007F032F8A5
:1048900009900D99159807F02DF808900D99149826
:1048A00007F028F807900D99139807F023F8069061
:1048B0000D99129807F01EF805900D99119807F0C0
:1048C00019F804900D99109807F014F803900D99B9
:1048D0000F9807F00FF80290AAF1010A09991D98A4
:1048E00006F008FE1D9008991C9806F003FE1C9027
:1048F00007991B9806F0FEFD1B9006991A9806F082
:10490000F9FD1A900599199806F0F4FD199004998B
:10491000189806F0EFFD18900399179806F0EAFD35
:1049200017900299169806F0E5FD1690BAF1000F5F
:104930007FF45AAD0C9800F0070A63E001CE0D90A9
:1049400001CC0E900D99159806F0D4FF09900D99A1
:10495000149806F0CFFF08900D99139806F0CAFF3F
:1049600007900D99129806F0C5FF06900D991198C1
:1049700006F0C0FF05900D99109806F0BBFF04905B
:104980000D990F9806F0B6FF0390DDE90D1006F0C3
:10499000B1FF0290149815901398149012981390E8
:1049A00011981290109811900F9810900E980F90E7
:1049B00009991D9806F09EFD1D9008991C9806F017
:1049C00099FD1C9007991B9806F094FD1B90069981
:1049D0001A9806F08FFD1A900599199806F08AFD2D
:1049E00019900499189806F085FD18900399179866
:1049F00006F080FD17900299169806F07BFD169040
:104A0000AAF1010ABAF1000F98D109F120091D9805
:104A100048F8040B1C9848F8040B1B9848F8040B42
:104A20001A9848F8040B199848F8040B189848F895
:104A3000040B179848F8040B169848F8040B0A98CA
:104A4000401E0A900A9800287FF4A1AC229800F03A
:104A500007000A901FE001CF01C500201D904C46C1
:104A60001E9E0C980B9000BF02CE01CC06F042FFB8
:104A700001901D9906F03EFD1D900B98401E0B9075
:104A80000B980028F0D11D9848F8040B09F104098F
:104A90000A98401E0A900A980028DCD1DBF80450DE
:104AA0000C98401E4FEA900A0DE059F8040B01C51E
:104AB00059F8040B01C559F8040B01C559F8040B4A
:104AC00001C5AAF1010ABAF1000FEED10C98401EFF
:104AD00000F0030A04E059F8040B01C5AAF1010A29
:104AE000BAF1000FF7D123B0BDE8F08F2DE9F04106
:104AF00004460D4617461E46DDF818802580A7603F
:104B0000A8F10100284481003046FBF7A4FE66604E
:104B1000BDE8F08102460021002001B907E001F064
:104B200007030BB9C80802E0012303EBD10070476B
:104B300010B500F04BF838B914210548FBF78BFE8F
:104B400000F008F800F01EF803F0CEF810BD0000E9
:104B5000EC290020C820074948705A2008705520C9
:104B600088702420C870084603A30ECB001D0EC019
:104B700070470000EC2900203136363735313835A2
:104B80003734340010B510220A494FF0FF3000F0DE
:104B900007F9084908611422074805F003FC1422AC
:104BA0000649054805F0C6FB0446214604A0FBF76C
:104BB0008DFB10BDEC29002000F80008002A002021
:104BC000726573203D2025640D0A000010B5142283
:104BD00009490A4805F0AEFB102207494FF0FF30A3
:104BE00000F0DEF8044604480069A04201D000202D
:104BF00010BD0120FCE70000EC29002000F80008AF
:104C000070B505460026002480222149214804F081
:104C10004EFFC6B2002E01DC002070BD002433E040
:104C20001B48005D0D2803D01948005D0A2816D1E5
:104C300029461948FBF708FD20B1002017490860F4
:104C40000120EAE70020144908701449086010495F
:104C5000601C085C0A2815D1601CC4B212E00F4821
:104C60000068FF280ED20A48015D0C4802680068FF
:104C7000401C0A4B186008488154002006491A4617
:104C800012688854601CC4B2B442C9DB0020C4E777
:104C9000BC140020640000203C15002064010020AA
:104CA00010B505F0ADFB05494968401AB0F5FA6F3B
:104CB00001D9012010BD0020FCE700009C1100205C
:104CC00070B504462546EA7EC2F34301A87E03F090
:104CD0003DFE70BD70B5044600262546AA7E02EB57
:104CE0004202074B03EB82029188AA7E02EB42024A
:104CF00053F82200FDF7D0F90646304670BD00009B
:104D00001C01002000B5244B21F0004287B09A42DC
:104D1000DCBF0022134629DD204B9A4208D140B95E
:104D20004FF00100FBF737FEFFF7FBFA07B000BDBD
:104D300003DBFFF7F1FA07B000BD02AAFEF7D6FFCA
:104D400010F0030104BF0DF1080C9CE80F000DD01A
:104D5000012001290ED0022914D00DF1080C009079
:104D60009CE80F00FFF75AFA07B000BDFFF782F981
:104D700007B000BD0DF1080C00909CE80F00FFF794
:104D80004DFA05E00DF1080C9CE80F00FFF772F9F1
:104D900007B081F0004100BDFB21E93F0000F07F3A
:104DA000F0B503460024184615E00F5D784008254D
:104DB0000DE000F0010CCCF10006DFF820C006EA9F
:104DC0000C0C8CEA5000A5F1010C0CF0FF05002D35
:104DD000EFDC641C521E002AE7D1F0BD2083B8ED41
:104DE000014681F0A530704706484FF0E021486148
:104DF000FF200549087000204FF0E021886107205E
:104E0000086170473F19010023ED00E000B501463D
:104E100005F0F6FA421800BF05F0F2FA9042FBD313
:104E200000BDF0B5034600224FF0E026746903FB95
:104E300004F64FF47A77B6FBF7F54FF0E026B16948
:104E400010E04FF0E026B06988420BD0884202D2D1
:104E50000E1A324402E0261A0E4432440146AA4297
:104E600000D300E0EDE700BFF0BD01B581B0002048
:104E70000090694601AA5078087010784870BDF813
:104E800000000CBD0146080601F47F4240EA022002
:104E900001F47F0240EA122040EA116070470000EE
:104EA00070B500269148046891480078401EC5B24C
:104EB00016E1E07E4009002809DDA089401CA081A0
:104EC000A0894FF6FF71884201DB208BA081E07E34
:104ED000400920B1012822D002281FD1CEE00120B4
:104EE000A84084490968084098B10020A081E08169
:104EF00000BFE07E20F01E00E076A06810B12046E2
:104F0000A168884700BFE07E20F0E0002030E07616
:104F100004E0E07E20F01E001630E076D6E00120AE
:104F2000A84074490968084000285FD0E08900283B
:104F30001DDDA089218A884218DD00BFE089032891
:104F400001DAE08900E00320E17E60F34401E176CC
:104F5000A06810B12046A168884700BFE07E20F01D
:104F6000E0002030E0760020A081E08185E0A0898B
:104F7000218B884210DBE07EC0F3430008287CD000
:104F800000BFE07E20F01E001030E076A06810B177
:104F90002046A168884770E0A089E18A884210DB3A
:104FA000E07EC0F34300062867D000BFE07E20F01B
:104FB0001E000C30E076A06810B12046A16888473A
:104FC0005BE0A089A18A884257DBE07EC0F3430002
:104FD000042852D000BFE07E20F01E000830E076AA
:104FE000A06810B12046A168884746E0A089218BBF
:104FF000884210DB00BFE07E20F01E001230E07619
:10500000A06810B12046A168884700BFE07E20F06C
:10501000E000E07631E0A089E18A884210DB00BF41
:10502000E07E20F01E000E30E076A06810B1204631
:10503000A168884700BFE07E20F0E000E0761CE039
:10504000A089A18A884210DB00BFE07E20F01E000C
:105050000A30E076A06810B12046A168884700BFFA
:10506000E07E20F0E000E07607E0E07E20F0E00067
:105070004030E076E089401CE08127E00120A84034
:105080001C490968084038B1E07E20F0E00020307B
:10509000E0760020A08118E0A089218A884214DDF2
:1050A00000BFE089032801DAE08900E00320E17E07
:1050B00060F34401E176A06810B12046A1688847FA
:1050C00000BFE07E20F0E000E07600BF00BFE07EA1
:1050D0004009002801DD701CC6B22468681EC5B2F4
:1050E000002C7FF4E6AE304670BD00009802002030
:1050F000A4020020A002002070B500260C4804681D
:105100000C480078401EC5B207E020466168884719
:10511000A84006432468681EC5B214B16068002820
:10512000F3D1F0430449096848400449086070BD60
:1051300098020020A40200209C020020A00200206F
:1051400001461C48026819B11B480078202802D982
:105150004FF0FF30704705E08A4202D14FF0FF3038
:10516000F8E71268002AF7D1124800680860C87E84
:1051700020F0E000C876C87E20F01E001630C87609
:1051800000208881C8810F2008820A480160C87EFB
:1051900000F00100084B1B789840084B1B6818432F
:1051A000064B186004480078401C034B18701846E2
:1051B0000078CFE798020020A40200209C02002083
:1051C00010B500F061F808B9002010BDFFF794FF9A
:1051D000FFF766FEF9E7000070B514461D460E465F
:1051E000002814BF01210021314321F00041C1F109
:1051F0007F6101F1E041C90F16D1002C14BF0121DC
:105200000021294321F00041C1F17F6101F1E0411A
:10521000C90F09D11449B1EB460F08BF00281CD0B3
:10522000690008BF002C18D0314605F077FE024611
:1052300040F2FF7030EA11500DD0F017B0EBE17F73
:1052400009D0084665F31E0084460B462046614699
:1052500005F048FF0246104670BD0120FBF79BFB9E
:10526000BDE87040FFF75DB80000E0FF00BF054AF1
:10527000128802F04002002AF9D0C2B2014B1B1D75
:105280001A807047004400400148007870470000D1
:10529000AA0200200148007A70470000A0280020E0
:1052A000024612B102F0070028B9082901D80020EF
:1052B00070470120FCE702F00700C0F108008842B7
:1052C00001D30020F4E70120F2E730B502460B4697
:1052D0000021002400250AB9481E30BD002108E045
:1052E000545C581A401E155C5554581A401E1454EC
:1052F000491CB1EB530FF3D30020EEE72DE9F04149
:1053000004460D460027002604B135B994A0FAF7EB
:10531000DDFF4FF0FF30BDE8F08100F06BFC06468A
:105320002878217888420CD097A0FAF7CFFF9C48C4
:1053300090F8F80320F00100401C994981F8F80327
:1053400001276878617888420CD096A0FAF7BEFFF2
:10535000934890F8F80320F00200801C904981F8EF
:10536000F8030127A878A17888420CD093A0FAF717
:10537000ADFF8B4890F8F80320F00400001D884929
:1053800081F8F8030127E878E17888420CD091A0F1
:10539000FAF79CFF824890F8F80320F008000830E4
:1053A0007F4981F8F80301272869216988420CD0D8
:1053B0008FA0FAF78BFF7A4890F8F80320F080006E
:1053C0008030774981F8F80301276869616988426C
:1053D0000CD08DA0FAF77AFF714890F8F90320F00D
:1053E0000100401C6E4981F8F9030127A869A169F1
:1053F00088420CD08AA0FAF769FF694890F8F9034F
:1054000020F00200801C664981F8F9030127E86951
:10541000E16988420CD088A0FAF758FF604890F8FC
:10542000F90320F00400001D5D4981F8F90301270C
:105430000C2204F1280105F12800FBF717F960B1EF
:1054400083A0FAF743FF564890F8F90320F02000B4
:105450002030534981F8F903012768686168884260
:1054600013D080480068301A41F2707188420CD322
:105470007DA0FAF72BFF4A4890F8F80320F01000BF
:105480001030474981F8F8030127A868A1688842CD
:1054900013D074480068301A41F2707188420CD3FE
:1054A00077A0FAF713FF3E4890F8F80320F02000A9
:1054B00020303B4981F8F8030127E868E168884219
:1054C00013D068480068301A41F2707188420CD3DA
:1054D00071A0FAF7FBFE324890F8F80320F0400084
:1054E00040302F4981F8F8030127216A286A06F025
:1054F00031F913D05B480068301A41F2707188426C
:105500000CD36AA0FAF7E2FE254890F8F90320F0E0
:1055100008000830224981F8F9030127616A686AA6
:1055200006F018F913D04F480068301A41F2707134
:1055300088420CD362A0FAF7C9FE194890F8F90323
:1055400020F010001030164981F8F9030127012FCF
:1055500003D100F04FFB434908603846DBE600000A
:1055600067697A436865636B5265706F7274204532
:1055700072726F72202C20496C6C6567616C2050D0
:105580006172616D0A00000076616C756566616C20
:105590006C537461204368616E6765640A000000A3
:1055A000CC1B002076616C756578696E6C765374DF
:1055B00061204368616E6765640A000076616C75FE
:1055C0006574656D70537461204368616E676564CE
:1055D0000A00000076616C756578756579616E67A3
:1055E000537461204368616E6765640A00000000BF
:1055F00076616C756554454D505F4D415820436848
:10560000616E6765640A000076616C756548525F7B
:105610004D4158204368616E6765640A00000000D0
:1056200076616C756548525F4D494E204368616EE6
:105630006765640A0000000076616C756553514F20
:10564000325F4D494E204368616E6765640A000011
:1056500076616C756550484F4E45204368616E67B2
:1056600065640A008802002076616C756578696E51
:105670007469616F204368616E6765640A000000A9
:1056800076616C756578756579616E6720436861D0
:105690006E6765640A00000076616C7565746977F1
:1056A000656E204368616E6765640A0076616C759B
:1056B000656C6174204368616E6765640A00000070
:1056C00076616C75656C6F6E204368616E676564AA
:1056D0000A0000002DE9F04389B006460C46174643
:1056E0004FF00008C1460025202101A8FBF7B3F8C0
:1056F0003088ADF804000EB104B13FB947A0FAF705
:10570000E5FD4FF0FF3009B0BDE8F083022101A8AC
:10571000FFF7DBFDB0F1FF3F05D14BA0FAF7D6FD57
:105720004FF0FF30EFE701A8FFF7F4F9804608F1EA
:10573000020005449DF804000121B1EBD01F11D1F6
:1057400011212278601C81542078401C2070715DEA
:105750008DF80A106D1C9DF80A200021012001F02F
:1057600039FB38619DF8050000F0010088B1122175
:105770002278601C81542078401C2070715D8DF867
:105780000B106D1C9DF80B207821012001F022FBED
:1057900078619DF80500C0F3400088B1132122789C
:1057A000601C81542078401C2070715D8DF80C10B5
:1057B0006D1C9DF80C200021012001F00BFBB8614D
:1057C0009DF80500C0F3800088B114212278601C88
:1057D00081542078401C2070715D8DF80D106D1C77
:1057E0009DF80D200021012001F0F4FAF8619DF8E8
:1057F0000500C0F3401070B115212278601C81545F
:105800002078401C207070190168B9624168F96203
:10581000806838630C35002075E7000067697A44BA
:10582000617461506F696E74324576656E7420459F
:1058300072726F72202C20496C6C6567616C20500D
:105840006172616D0A00000067697A427974654F80
:105850007264657245786368616E6765204572722F
:105860006F720A002DE9F04790B005460F4690464A
:105870004FF0000900260024202101A8FAF7EBFFD1
:105880009548B0F8F803ADF80400022101A8FFF72D
:105890001CFDA41C05B13FB990A0FAF717FD4FF00D
:1058A000FF3010B0BDE8F0878B4890F8F80300F0A7
:1058B000010038B12B7801A802190121304601F00E
:1058C0004BFA761C844890F8F803C0F3400038B1D6
:1058D0006B7801A802190121304601F03DFA761CCF
:1058E0007D4890F8F803C0F3800038B1AB7801A888
:1058F00002190121304601F02FFA761C764890F803
:10590000F803C0F3C00038B1EB7801A802190121F7
:10591000304601F021FA761C16B94FF0000908E074
:1059200006F0070010B94FEAD60902E0012000EBAB
:10593000D609B9F1010F04D901A908194946FFF7A1
:10594000C4FC4C44644890F8F803C0F3001060B104
:105950006A680021012001F043FAC0B28DF82500E9
:1059600001A89DF825100155641C5B4890F8F803C8
:10597000C0F3401060B1AA680021012001F030FAA4
:10598000C0B28DF8260001A89DF826100155641CB0
:10599000514890F8F803C0F3801060B1EA68002124
:1059A000012001F01DFAC0B28DF8270001A89DF872
:1059B00027100155641C484890F8F803C00960B1ED
:1059C0002A690021012001F00BFAC0B28DF82800ED
:1059D00001A89DF828100155641C3F4890F8F90370
:1059E00000F0010060B16A697821012001F0F8F946
:1059F000C0B28DF8290001A89DF829100155641C3A
:105A0000354890F8F903C0F3400060B1AA6900215D
:105A1000012001F0E5F9C0B28DF82A0001A89DF837
:105A20002A100155641C2C4890F8F903C0F380003B
:105A300060B1EA690021012001F0D2F9C0B28DF80D
:105A40002B0001A89DF82B100155641C224890F8EA
:105A5000F903C0F3C00068B12A6A00212B4801F0A5
:105A6000C6F98246FFF70EFA0B9001A820440B9965
:105A70000160241D184890F8F903C0F3001068B1C4
:105A80006A6A0021214801F0B2F98246FFF7FAF96B
:105A90000C9001A820440C990160241D0E4890F838
:105AA000F903C0F3401040B101A82044A96A016085
:105AB000E96A4160296B81600C3407480021A0F835
:105AC000F813C8F8004001A93846D8F80020FAF7C2
:105AD00021FE0020E5E60000CC1B002067697A4427
