:020000040800F2
:10000000582D00203D0200085D320008C52D000873
:10001000052F0008911700086B3A00080000000047
:100020000000000000000000000000004D36000845
:10003000451B000800000000353500086D3700083A
:10004000570200085702000857020008570200082C
:10005000570200085702000857020008570200081C
:10006000570200085702000857020008570200080C
:1000700057020008570200085702000857020008FC
:1000800045180008570200085702000857020008E8
:10009000570200085702000857020008611B0008B9
:1000A00057020008570200085702000857020008CC
:1000B00005380008570200085702000857020008D8
:1000C00057020008570200085702000857020008AC
:1000D0005702000845380008713800089D380008AC
:1000E000570200085702000857020008570200088C
:1000F000570200085702000857020008570200087C
:10010000570200085702000857020008570200086B
:10011000570200085702000857020008570200085B
:10012000570200085702000857020008570200084B
:1001300000F002F800F073F80AA090E8000C824486
:100140008344AAF10107DA4501D100F068F8AFF263
:10015000090EBAE80F0013F0010F18BFFB1A43F0A5
:10016000010318477C8A00009C8A00000A444FF073
:10017000000C10F8013B13F0070408BF10F8014B06
:100180001D1108BF10F8015B641E05D010F8016B4B
:10019000641E01F8016BF9D113F0080F1EBF10F8AF
:1001A000014BAD1C0C1B09D16D1E58BF01F801CBD2
:1001B000FAD505E014F8016B01F8016B6D1EF9D555
:1001C0009142D6D37047000000230024002500266A
:1001D000103A28BF78C1FBD8520728BF30C148BFAA
:1001E0000B607047702900F00581662907F02781B0
:1001F000642900F08F80782900F0EF80732900F0E7
:100200008485002070471FB500F0C8FD0400002061
:10021000002106F0EBF8E0601FBD10B510BD00F046
:10022000C1FE1146FFF7EFFF04F0F0FD00F0DFFE26
:1002300003B4FFF7F2FF03BC03F05FFC09488047FB
:1002400009480047FEE7FEE7FEE7FEE7FEE7FEE7B8
:10025000FEE7FEE7FEE7FEE704480549054A064BD0
:1002600070470000A537000831010008582300201E
:10027000582D0020582500205825002070470000E8
:100280000FB4044910B503AA029800F043FD10BC56
:100290005DF814FBA00000200FB41CB5074B06AAA4
:1002A0007B4469460090059800F005FD00206946F2
:1002B00000F014FD1CBC5DF814FB0000390A0000BE
:1002C00070B50C460546012A05D02878800600D571
:1002D000EA69002302E0012305E05B1C934202D29D
:1002E000E05C0028F9D1A869E618C01AA861286A5C
:1002F000184428622846AFF3008004E0D5E90121C4
:1003000014F8010B9047B442F8D32846AFF30080AD
:1003100070BD00002DE9F0410646002410687529E3
:10032000314616A510D0AFF30080002802DA404213
:1003300013A507E031688A0701D512A502E0490735
:1003400004D511A5012401E0AFF3008000210A22A9
:1003500006F1240709E0B0FBF2FCB0FBF2F302FB6C
:100360001C00303078541846491C0028F3D123462D
:100370002A463046BDE8F04100F030BA00000000E7
:100380002D0000002B00000020000000F0B40D46FE
:100390000188090502D51B4C7C4402E0194C7C44C1
:1003A0000E34002100F1240305E002F00F061209CB
:1003B000A65D5E54491C002AF7D10278002312077B
:1003C00004D5702D06D009B1022311342246F0BCA9
:1003D00000F004BA01231034F8E770B504460D4666
:1003E00021461068AFF30080024629462046BDE84A
:1003F0007040CBE70368126843F0200303600823D2
:10040000C361C3E71A8500002DE9F05F8946044601
:100410004FF0000ADFF824B1FB44C0F820A02046CA
:10042000E168884700287DD0252806D0D4E901213D
:100430009047206A401C2062F1E700255F46204675
:10044000E16888472028064607DB312E05D2B81917
:1004500010F8200C08B10543F1E7A80701D525F0F5
:100460000405C4F81CA00027C4F818A02A2E09D03F
:10047000304603F03BFB38B304EB8708303EC8F846
:10048000186019E059F8041B204604EB87029161BB
:10049000E1688847012F064618D1E069002820DA74
:1004A00025F020051DE0D8F8180000EB800006EBD1
:1004B00040003038C8F818002046E16888470646F2
:1004C00003F014FB0028EED1012F0AD02E2E08D104
:1004D0002046E16888477F1C0646022F45F020052C
:1004E000C4DBA069002803DA404245F00105A061A1
:1004F000E80701D025F01005A6B1A6F141001928A2
:1005000002D8203645F400654A463146204625602B
:100510004D46FFF767FE60B1012807D0ED1D25F0BD
:10052000070000E007E000F1080978E705F1040999
:1005300075E730467AE7206ABDE8F09FC284000084
:1005400030B505460B462A4613F8014B12F8010B4D
:1005500008B1A042F8D01CB1002802D06D1CF1E710
:10056000284630BD10B5431C02E010F8011B71B1E4
:100570008107FAD14FF0013202C88C1A8C4314EA79
:10058000C211F9D0C01A0A0603D0C01E10BDC01A8D
:1005900010BD0A0401D0801E10BD0902FCD0401E0F
:1005A00010BD40EA010370B59B072ED14FF0013614
:1005B000042A2AD308C810C99D1B9D43121F15EA9F
:1005C000C61517D0D8B2E1B2401A50EA056110D171
:1005D00098B2A1B2401A50EA05410AD123F07F40F7
:1005E00024F07F41401A50EA052102D1180EA0EBF9
:1005F000146070BDA342DBD018BA21BA884201D979
:10060000012070BD4FF0FF3070BD0AB9002070BDF1
:1006100010F8013B11F8014B63B1A3420AD1521EFD
:1006200008D010F8013B11F8014B1BB1A34201D1D6
:10063000521EEDD1181B70BD032A40F2308010F01D
:10064000030C00F0158011F8013BBCF1020F62446D
:1006500098BF11F801CB00F8013B38BF11F8013BFE
:10066000A2F1040298BF00F801CB38BF00F8013BAB
:1006700011F0030300F06083083AC0F0088051F8DD
:10068000043B083A51F804CBA0E80810F5E7121D26
:100690005CBF51F8043B40F8043BAFF30080D20745
:1006A00024BF11F8013B11F801CB48BF11F8012B11
:1006B00024BF00F8013B00F801CB48BF00F8012B34
:1006C00070474FF000020429C0F0128010F0030CB4
:1006D00000F01B80CCF1040CBCF1020F18BF00F835
:1006E000012BA8BF20F8022BA1EB0C0100F00DB8E4
:1006F0005FEAC17C24BF00F8012B00F8012B48BF42
:1007000000F8012B70474FF0000200B513469446E5
:100710009646203922BFA0E80C50A0E80C50B1F159
:100720002001BFF4F7AF090728BFA0E80C5048BF6D
:100730000CC05DF804EB890028BF40F8042B08BF0B
:10074000704748BF20F8022B11F0804F18BF00F807
:10075000012B70474FF0013C50F8042B51F8043B3B
:100760009A4221D1A2EB0C03934313EACC1317D185
:1007700050F8042B51F8043B9A4215D1A2EB0C031C
:10078000934313EACC130BD150F8042B51F8043BDC
:100790009A4209D1A2EB0C03934313EACC13DBD0AA
:1007A0004FF00000704700BFD01A01BAB1FA81F1D2
:1007B00001F0180122FA01F0CB40C1F12001DBB2B7
:1007C000C0B2C01A2CFA01F3D11A914311EAC31135
:1007D000E6D1704770477047704770472DE9F04782
:1007E0000D4699469246044600F1240801688806A1
:1007F00004D5E06921F01001216000E00120A84249
:1008000001DD471B00E00027A1697A1902EB09000E
:10081000081AA0612078C00602D42046AFF30080F9
:10082000002608E0D4E901211AF806009047206A62
:10083000401C761C20624E45F4DB2078C0060AD5A9
:100840002046AFF3008006E0D4E901213020904734
:10085000206A401C2062381EA7F10107F4DC07E083
:10086000D4E9012118F805009047206A401C206255
:10087000281EA5F10105F3DC2046AFF300802078A7
:10088000000602D50220BDE8F0870120FBE7704793
:100890002DE9FF4F0C461E464FF0FF378BB0D2E9D3
:1008A0000001DDF860800A908A46C1F30A5505B957
:1008B0003D46002108464FF00000BAF1000F00F459
:1008C000400005DA00EB80004FF4400101EA5000DF
:1008D0004FEA9059B9F1010F00DDB9460A9850EA84
:1008E0004A000ED044F61050A5F2FF3545432F14B0
:1008F000B8F1000F1ED07542291E1EDDC9F100029D
:100900001CE0B8F1010F4FF0000001D0302103E0EE
:10091000F24305E02154401CB042FBDB304600228C
:10092000002121540B99C1F80880C1E900200FB0C3
:10093000BDE8F08FBD1B6D1CDEE74A4600DA694258
:1009400006A800F0B5FA06AB93E8070003AB83E80E
:10095000070050460A9900F053FB8DE80700A0F508
:1009600000501F3800900398002D0ADD42F21F014D
:100970004A460844002303A90390684600F0BCFDE2
:1009800009E0A0F500504A461F38002303A9039050
:10099000684600F0C6FD8DE807000004000C03D097
:1009A0004FF0FF30410800E01046B8F1000F03D0CF
:1009B0000022009215461EE0751E05D400F0F2F9E3
:1009C000303262556D1EF9D5B3460122084302D07C
:1009D00000227F1C04E02078302801D100227F1EF5
:1009E000002A099784D01DE0112D07DA00F0DAF90A
:1009F000303262556D1C50EA0102F5D1084302D035
:100A00000098C8B10EE00021681E05E0235C625C1E
:100A100063542254401E491C8142F7DBAB46A81B9D
:100A2000401E0990002004F80B000B98099AC0F8AA
:100A30000880C0E9002B7AE711264FF0000857E73D
:100A40002DE9F04F88460446D21D22F0070191B0EF
:100A5000D1E90001CDE90A0103F034F802460B9810
:100A6000C00F01D02D2007E02068810701D52B2081
:100A700002E0202101EAC000032A099001D0072AE0
:100A800005DB03464146204600F0D2F90BE1207811
:100A9000800601D5E06900E00620B8F1650F8146C7
:100AA00006D0B8F1660F18D0B8F1670F70D131E0F9
:100AB0000020B9F1110F009001DB112301E009F1D1
:100AC00001030AAA01A90CA8FFF7E2FEDDE90C70F8
:100AD000002609F10105834647E001204B460090BE
:100AE0004FF000470AAA01A90CA8FFF7D1FEDDE9E3
:100AF0000DB00C995D46002610B909F101000D18E2
:100B0000B9EB050003D4C0F1FF3609F10105A5EBEF
:100B100009002BE0B9F1010F01DA4FF001090020C3
:100B2000B9F1110F0090484601DD112300E00346A2
:100B30000AAA01A90CA8FFF7ABFEDDE90C704D462F
:100B400000268346207800070AD4AB4500DA5D46CC
:100B500001A8012D04DD411911F8011C302907D02D
:100B60004F4502DA17F1040F04DA012082460FE044
:100B70006D1EEEE7002F02DCED1B3E4403E0781C07
:100B8000A84200DD7D1CB81B00F1010A4FF00047B0
:100B90002078000703D4AA4501DB4FF0FF3A00217B
:100BA000B7F1004F0DF143088DF8431024D0022017
:100BB0002B23002F01DA7F422D230A21021EA0F1F0
:100BC000010000DC5FB197FBF1FC97FBF1F201FB48
:100BD0001C7C17460CF1300C08F801CDEEE7A8F1AB
:100BE000010003702188090501D5452100E0652138
:100BF000A0F1010800F8011C09980FA9A1EB080752
:100C0000FF1D00B10120411901EBEA70A1693844D0
:100C1000081A401EA0612078C00602D42046AFF317
:100C20000080099828B1D4E901219047206A401C2E
:100C300020622078C00622D52046AFF300801EE057
:100C4000002E04DBB34502DD01A8805D00E030200A
:100C5000D4E901219047206A401C2062761CAAF149
:100C600001005FEA000A0AD100F098F8C068016844
:100C7000405CD4E901219047206A401C2062281E74
:100C8000A5F10105DCDC07E0D4E9012118F8010B2E
:100C90009047206A401C2062381EA7F10107F3DC50
:100CA0002046AFF30080032011B041E601694A1CE1
:100CB00002610878704700B58FB0CDE9013100219D
:100CC000059105497944CDE9031011466846FFF7BF
:100CD0009BFB0FB000BD0000E5FFFFFF0A6802F8B4
:100CE000010B0A60704710B5436913B1AFF3008080
:100CF00001E0FFF7E5FA012010BD127800F12401B0
:100D00000A7000224A700122EDE711684FF0FF32AD
:100D1000E9E70000074B70B50D467B44FFF7CBFFBA
:100D20000446284600F036F910B14FF0FF3070BD90
:100D3000204670BDCB3A000010B5203AC0F00B80C1
:100D4000B1E81850203AA0E81850B1E81850A0E8CF
:100D50001850BFF4F5AF5FEA027C24BFB1E8185029
:100D6000A0E8185044BF18C918C0BDE810405FEA99
:100D7000827C24BF51F8043B40F8043B08BF704715
:100D8000D20728BF31F8023B48BF11F8012B28BF1A
:100D900020F8023B48BF00F8012B7047004870471D
:100DA0001823002030B5B0F10A024FEA900E71F11D
:100DB00000034EEA817EB0EB0E0061EB91014FEA39
:100DC000101E4EEA017E10EB0E0041EB11114FEAAE
:100DD000102E4EEA016E10EB0E0041EB11214FEA8E
:100DE000104E4EEA014E10EB0E0041EB114140183F
:100DF00041F100014FEAD00040EA41704FEAD101D1
:100E000010EB80054FEA810444EA907444EB01043E
:100E10006D1944EB0404521BA3414FF0000348BF7B
:100E20000A3200D530BD401C41F1000130BD000048
:100E30002DE9F0411F46044603260168072A01F404
:100E4000006004DB08B116A505E016A503E008B1B3
:100E500015A500E015A521F010002060A069C01EB6
:100E6000A0610FB1401EA0612046AFF300804FB1DA
:100E7000D4E9012138469047206A401C2062C01CFA
:100E8000206206E0206AFAE7D4E9012115F8010B97
:100E90009047761EF8D22046AFF30080BDE8F0817F
:100EA0004E414E006E616E00494E4600696E66000E
:100EB0002DE9F047814616468AB0354878440DC87A
:100EC0008DE80D0032487844801C03AC0DC884E8DE
:100ED0000D0041F69B300844372190FBF1F290FB66
:100EE000F1F5A5F1800501FB12041B3C02D564421B
:100EF000012000E00020DFF898A080460027FA4497
:100F0000AAF1BE0A0EE0E0070AD03246684607EBB7
:100F1000470101230AEB810100F003FB8DE8070084
:100F200064107F1C002CEED1194F7F44AE3F19E0B6
:100F3000E80715D007EB04100DF1180A90E80E0031
:100F40008AE80E00C068F04201D198190890324634
:100F5000012306A903A800F0E4FA03AB83E8070025
:100F60006D10641C002DE3D14FF001033246694639
:100F7000B8F1000F03A802D000F0BEFA01E000F0C3
:100F8000D0FAC9E90001C9F808200AB0BDE8F08725
:100F9000AC7A0000007B00F080007047004870478A
:100FA000F82200207546FFF7F9FFAE4605006946B6
:100FB000534620F00700854618B020B5FFF74CF9DE
:100FC000BDE820404FF000064FF000074FF000084A
:100FD0004FF0000B21F00701AC46ACE8C009ACE8CB
:100FE000C009ACE8C009ACE8C0098D46704710B52F
:100FF0000446AFF300802046BDE81040FFF718B963
:101000005FEA400C08BF91F0000F4FEA8C234FEAD3
:10101000C12243EA51514FEA1C5018BF00F5F0407D
:101020004FEA300018BF41F000415FEA6C5C00F00D
:101030002980BCF1FF3F08BF40F080407047130C8F
:1010400006BF12044FF0100C4FF0000C130E04BF3B
:1010500012020CF1080C130F04BF12010CF1040C66
:10106000930F04BF92000CF1020CD30F04BF520087
:101070000CF1010C11464FF00002A0F11F00A0EB93
:101080000C00704711F0004F08BF704731F000416D
:101090003FF4D5AF0B0C06BF09044FF0100C4FF016
:1010A000000C0B0E04BF09020CF1080C0B0F04BF5F
:1010B00009010CF1040C8B0F04BF89000CF1020C28
:1010C000CB0F04BF49000CF1010CCCF12003A0EBC5
:1010D0000C0022FA03F302FA0CF241EA030100F1D8
:1010E0000100704720F07F4C80EA030023F07F4727
:1010F000ACEB070303F57C5300F0004003F1FF0362
:101100002DE980494FEA154B09B44FEA144325EA0B
:101110000B4E24EA03480FF2042606EB1327490876
:101120003E785FEA320203FB0667C7F5000707FB5C
:1011300006F64FEA54374FEAD64606F1020607FB99
:10114000066CCCF1005C4FEA1C472CEA074C07FB0D
:1011500006F40CFB06F504EB15464FEA961634BF71
:1011600000204FF000404FEAD13706FB07FC4FEA62
:101170001C4C0CFB0BF7D21B03FB0CF761EB0701BC
:101180000CFB0EF7B0EB074072EB17420CFB08F7B5
:1011900034BFA2EB0742B2EB074261EB17414FEAC3
:1011A0000C444FEA910706FB07FC4FEA1C4C0CFB72
:1011B0000BF7B0EBC74072EB573203FB0CF734BFB1
:1011C000A2EBC742B2EBC74261EB57310CFB0EF703
:1011D000B0EBC70072EB57720CFB08F734BFA2EB01
:1011E000C702B2EBC70261EB5771039F4FEA8161FF
:1011F00041EA921104EBCC044FEAD1374FEA826204
:1012000006FB07FC42EA90124FEA80604FEA1C4C52
:101210000CFB0BF7D21B03FB0CF761EB07010CFB7C
:101220000EF7B0EB074072EB17420CFB08F734BF28
:10123000A2EB0742B2EB074261EB17414FEA8C5534
:101240004FEA910704EB9C2406FB07FC4FEA1C4C79
:101250000CFB0BF7B0EBC74072EB573203FB0CF7FC
:1012600034BFA2EBC742B2EBC74261EB57310CFB74
:101270000EF7B0EBC70072EB57720CFB08F734BFE8
:10128000A2EBC702B2EBC70261EB577115EB4C251D
:101290004FEA816141EA92114FEA82624FEAD13707
:1012A00042EA901206FB07FC44F100044FEA80601A
:1012B0004FEA1C4C0CFB0BF7D21B03FB0CF761EB4A
:1012C00007010CFB0EF7B0EB074072EB17420CFB6B
:1012D00008F734BFA2EB0742B2EB074261EB1741BC
:1012E00015EB1C154FEA813141EA92414FEA8232F7
:1012F00042EA90424FEA80304FEA0C7644F1000413
:1013000048EA03434EEA0B484FF0000EB2EB080CDC
:1013100071EB030724BF624639464EEB0E0E4FF0C9
:10132000000B0018524149414BEB0B0BB2EB080C80
:1013300071EB03077BF1000B24BF624639464EEB8D
:101340000E0E4FF0000B0018524149414BEB0B0BB6
:10135000B2EB080C71EB03077BF1000B24BF624674
:1013600039464EEB0E0E51EA020718BF46F0010651
:1013700016EB0E7655F1000254F1000103D5BDE8DD
:101380008901BDE80088BDE88901BDE80048B619BB
:10139000524141EB0101A3F10103704780807F7E40
:1013A0007D7C7B7A797877767675747372717170DB
:1013B0006F6E6E6D6C6C6B6A6A696868676666658D
:1013C0006464636362616160605F5F5E5E5D5D5C1B
:1013D0005C5B5B5A5A59595858575756565555558C
:1013E0005454535352525251515050504F4F4F4EEC
:1013F0004E4D4D4D4C4C4C4B4B4B4A4A4A4949493A
:10140000484848474747474646464545454444447B
:10141000444343434342424242414141002B9C46A4
:1014200030D477002BD01CB54FEA370703B44FF008
:1014300010004FF01001BAF1000F06D0BCF1000F00
:10144000DCBF40F0080040F008014FF000000FBC86
:10145000BDE810400BF1010BBBF1010F08BF5FEAC3
:10146000170722BF12F1010211F101014FF00041F3
:1014700043F1000300F0004043EA00007047F9D355
:101480005708D0E746EA064613F1400F4FEA1646E2
:101490001FDD13F1200FDFBF16430A460021203362
:1014A0005B42BED0C3F1200746EA064602FA07F7C0
:1014B0004FEA164646EA0706C3F1200722FA03F26E
:1014C00001FA07F721FA03F14FF0000342EA07029D
:1014D000A7E746EA020646EA06464FEA164646EA05
:1014E0000106BCBF46EA0646360C4FF000034FF03B
:1014F00000024FF0000194E72DE9804C9A46934694
:1015000070B491E8380007C831EA400C48BF34EAAB
:10151000430C03D5FFF7E6FDFFF780FFF0BCBDE805
:10152000008C2DE9804C9A46934670B491E83800BF
:1015300007C810F0804F08BF13F0804F03D100F0B0
:1015400005F8FFF76BFFF0BCBDE8008C20F07F478B
:1015500080EA030023F07F4C07EB0C03A3F57C53D8
:1015600000F00040A3F1FE0392F0000F00F0B38002
:1015700095F0000F00F077802DE901494FEA114006
:101580004FEA144621EA004800FB06FC24EA06471D
:1015900008FB06F607FB08F800FB07F718EB064800
:1015A0004CEB164C4FEA124B18EB07484FEA154626
:1015B0004CEB174022EA0B4E0BFB06FC25EA0647D4
:1015C0000EFB06F607FB0EFE0BFB07F71EEB064EA7
:1015D0004CEB164C4FF000061EEB074E4CEB174B36
:1015E00018EB0B0840F1000018EB0E0B58EB00084D
:1015F00040F100008F1A4FF000013CBFC943661B49
:1016000014BFB5EB040C00213CBFC943F61B4FEAE5
:1016100017444EEA8E0E27EA04454FEA1C4704FBA6
:1016200007622CEA074C05FB07F70CFB05F604FBE9
:101630000CFC16EB074642EB174216EB0C4642EB4E
:101640001C421BEB060658EB0202414146EA9E068D
:1016500001D5BDE80189B619524141EB0101A3F161
:101660000103BDE801894FEA14454FEA114724EA16
:10167000054621EA074C05FB07F406FB07F70CFBC0
:1016800006F105FB0CFC11EB074144EB17444FEA54
:10169000124711EB0C4144EB1C4422EA074C05FBBA
:1016A00007F206FB07F70CFB06F605FB0CFC16EB36
:1016B000074642EB174216EB0C4642EB1C456A18F4
:1016C00054F1000148BF7047B619524141EB010186
:1016D000A3F10103704795F0000F37D04FEA114294
:1016E0004FEA144721EA024624EA074C02FB07F1BD
:1016F00006FB07F70CFB06F402FB0CFC14EB07449B
:1017000041EB17414FEA154714EB0C4441EB1C41E8
:1017100025EA074C02FB07F506FB07F70CFB06F66C
:1017200002FB0CFC16EB074645EB174516EB0C4687
:1017300045EB1C42121951F1000148BF7047B61920
:10174000524141EB0101A3F1010370474FEA1445F7
:101750004FEA114724EA054621EA074C05FB07F149
:1017600006FB07F70CFB06F24FF0000605FB0CFC2E
:1017700012EB074241EB174112EB0C4251EB1C41BB
:1017800048BF7047921841EB0101A3F10103704774
:1017900000BFFEE713B582B00446012003A903464B
:1017A0002246CDE90010D02101F054F81FBD000001
:1017B00010B5044614B1012C3CD11DE01F4800EBCC
:1017C0000410007B50B91D4A02EB041291881B4A99
:1017D00002EB0412106800F0A0FB09E0174A02EBCC
:1017E00004129188154A02EB0412106800F097FB6E
:1017F0000020134908701EE0104800EB0410007B25
:1018000050B90E4A02EB041291880C4A02EB041202
:10181000106800F082FB09E0084A02EB041291888C
:10182000064A02EB0412106800F079FB002004491C
:10183000087000E000BF00BF10BD0000BC00002029
:10184000A800002010B54FF4001000F01BF838B1CC
:101850004FF4001000F008F80121024801F0CEFA20
:1018600010BD00000054004000F0805111B1034948
:10187000086001E00249486070470000040402402B
:101880000000024001460020002201F0805313B105
:10189000054B1A6801E0054B1A6802EA01030BB117
:1018A000012000E0002070470004024000000240D8
:1018B00010B500241548006820F470201349086012
:1018C0000846006840F40020086004E0601CC4B2D0
:1018D000012002F0C8FD0E48006808B1C82CF5DBF5
:1018E000C82C01DB012010BD002404E0601CC4B240
:1018F000012002F0B8FD0648006808B9F02CF5DBBD
:10190000F02C01DB0120EEE70020ECE7000C0140A9
:10191000108121422DE9F84F00F0CEF800F0AAF82E
:10192000FFF7C6FFCC2000F0D3F8BE2000F0D0F8BF
:1019300000F08EF8834600F08BF80446072C08DD93
:10194000E043C4B26FEA0B0000F0FF0B4FF0000A57
:1019500001E04FF0010AA1464FEA09200FFA80F991
:1019600009EB0B000FFA80F9484605F095FB009053
:1019700005F01AFA07460022084B04F0F7FF054667
:1019800004F088FF0FFA80F9BAF1000F02D0484640
:10199000BDE8F88FC9F1000000B2F9E70000E43FAC
:1019A00008B50121082001F0D7FD0121084601F00A
:1019B000D3FD0121094800F05FFA1020ADF80000C6
:1019C0008DF8030003208DF802006946044800F0FA
:1019D000C7F900F04FF8FFF76BFF08BD00023000B9
:1019E000000C014010B51748006820F4702015491C
:1019F00008600846006840F4403008600020124942
:101A00000860022002F02FFD01201049C1F890016A
:101A10000C48006820F470200A49086008460068F5
:101A200040F4002008600C2002F01DFD06488038BC
:101A3000006808B1012400E00024322002F013FD08
:101A4000204610BD000C01409081214200802142BF
:101A500070B50026012508E0FFF7C4FF0446E00149
:101A600040EA6600C6B2681CC5B2082DF4DD3046F7
:101A700070BD000010B50D48006820F470200B49BF
:101A800008600846006840F44030086000200849BB
:101A9000086040F2EE2002F0E6FC01200549C1F8A2
:101AA00090010F2002F0DFFC10BD0000000C01408F
:101AB000908121420080214210B5FFF7DBFFFFF744
:101AC000F7FECC2000F004F8442000F001F810BD2F
:101AD00070B504461848006820F470201649086064
:101AE0000846006840F440300860012520E004F01A
:101AF000010664106EB1002010490860022002F057
:101B0000B2FC01200E49C1F890013C2002F0ABFC70
:101B10000CE00020094908603C2002F0A4FC0120F0
:101B20000749C1F89001022002F09DFC681CC5B273
:101B3000082DDCDD70BD0000000C014090812142C9
:101B4000008021427047000004490978002904DD23
:101B500002490978491E014A11707047C4010020EA
:101B600010B5202000F002F810BD00000149086007
:101B70007047000014040140002123498279002AA3
:101B80003AD00A46126803689A430B461A600A1D47
:101B9000126803689A430B1D1A60027911440A689F
:101BA00003681A430A60184A0832126803689A43A5
:101BB000154B08331A601A1D126803689A43124BBA
:101BC0000C331A604279102A0ED11A1F126803686A
:101BD0001A430D4B08331A601A1D126803681A4322
:101BE000094B0C331A600DE00749427911440A6829
:101BF00003681A430A6005E0027911440A68036821
:101C00009A430A60704700000004014030B5044662
:101C100004254FF4302000F06FF80546042D17D14D
:101C20000C48006940F002000A4908610846446116
:101C3000006940F0400008614FF4302000F05CF88B
:101C400005460448006941F6FD71084001490861F4
:101C5000284630BD0020024004200B49C96801F02D
:101C6000010109B101200EE00749C96801F0040132
:101C700009B1022007E00449C96801F0100109B167
:101C8000032000E004207047002002400348006960
:101C900040F08000014908617047000000200240C8
:101CA00070B504460D460426F00200F025F80646FD
:101CB000042E11D10948006940F00100074908616C
:101CC0002580F00200F018F806460448006941F645
:101CD000FE71084001490861304670BD0020024095
:101CE000024803494860034848607047230167453C
:101CF00000200240AB89EFCD00B502460423FFF778
:101D0000ABFF034603E0FFF7A7FF0346521E012B7C
:101D100001D1002AF7D102B90523184600BD000001
:101D200030B500228B071C0F0F2303FA04F20B4B74
:101D30008C1053F824309343084C8D1044F8253010
:101D400023468C1053F824308C07240F00FA04F437
:101D50002343024C8D1044F8253030BD080001406B
:101D60002DE9F04102460025002600200023002432
:101D7000002791F803C00CF00F0591F803C00CF098
:101D8000100CBCF1000F03D091F802C04CEA05051D
:101D900091F800C0BCF1000F31D0146800202BE096
:101DA0004FF0010C0CFA00F3B1F800C00CEA030686
:101DB0009E4220D183004FF00F0C0CFA03F7BC4376
:101DC00005FA03FC4CEA040491F803C0BCF1280FA7
:101DD00006D14FF0010C0CFA00FCC2F814C00AE066
:101DE00091F803C0BCF1480F05D14FF0010C0CFA7B
:101DF00000FCC2F810C0401C0828D1D31460B1F810
:101E000000C0BCF1FF0F34DD546800202EE000F16B
:101E1000080C4FF0010808FA0CF3B1F800C00CEA06
:101E200003069E4221D183004FF00F0C0CFA03F7FA
:101E3000BC4305FA03FC4CEA040491F803C0BCF16E
:101E4000280F05D100F1080C08FA0CF8C2F814802C
:101E500091F803C0BCF1480F07D100F1080C4FF016
:101E6000010808FA0CF8C2F81080401C0828CED3EC
:101E70005460BDE8F0810000F0B50A46002300245C
:101E80000021002500F00046B6F1004F02D11D4EA2
:101E9000F16901E01B4E7168C0F3034583B200F4A1
:101EA0004016B6F5401F08D121F07061154E7668D6
:101EB00026F07066134F7E6012E000F48016B6F5CF
:101EC000801F06D1032606FA05F4A14341F0706194
:101ED00006E0460D360103FA06F6B14341F07061A3
:101EE00022B1460D360103FA06F6314300F00046F2
:101EF000B6F1004F02D1034EF16101E0014E716075
:101F0000F0BD0000000001400246002093680B4035
:101F10000BB1012000E00020704741617047016172
:101F200070472DE9FE4F05460C4616461F46DDF864
:101F30003090C4F1800000EBD0714FEA610AC4F127
:101F4000800000EBD07104EB6101A1F1010BA84608
:101F5000A819401E0290CDE900795A4641465046E4
:101F6000029B00F02FF8BDE8FE8F2DE9F0410546F9
:101F70000C4616460027A8462046FEF7F3FA8021B5
:101F8000A1EBC0004708334622464146384600F0E0
:101F9000BBFABDE8F081000002460020002100BF2E
:101FA0000BE0002105E0064B03EBC0135A544B1C19
:101FB000D9B28029F7DB431CD8B20828F1DB70477F
:101FC000441600202DE9F04F8BB007460C4693468F
:101FD0009946159D00200A90002609908246804669
:101FE00008900790BA46A3E0A0469CE005F00400E4
:101FF00028B10BEB0700A0EB0A00089001E0CDF838
:1020000020A0002683E005F0080030B109EB0400B1
:10201000A0EB0800801B079002E008EB0600079089
:102020000A991498405CB04000F08000099005F0D7
:10203000010010B1099800B967E005F0020028B16D
:10204000099808B9012000E00020099005F010006F
:1020500018B905F02000002851D00799081B05F099
:102060001BF8029035488169029805F075F80490D4
:102070000899C81B05F010F8009030484169009895
:1020800005F06AF80290384605F006F801900299CA
:1020900004F0B6FE0390049905F05CF906900799E8
:1020A000081B04F0F9FF029024484169029805F0EA
:1020B00053F804900899C81B04F0EEFF00901F48E5
:1020C0008169009805F048F80290204604F0E4FF8A
:1020D0000190029904F094FE0390049904F090FE9C
:1020E0000590059804F0BCFF0490069804F0B8FF32
:1020F00003900146049A099800F0CEF904E0DDE966
:102100000721099800F0C8F900BF701CC6B2082E5C
:1021100004DAA9EB0800B0423FF775AF0A98401CFB
:102120000A9008F10808C845FFF660AF0AF1010AF5
:10213000DA45FFF659AF0BB0BDE8F08F441A002026
:102140002DE9F04F89B082468B4617469846129E7D
:1021500000250024002008900790069005908146F5
:10216000A7F12000C7B200BFC9E0B8F1100F09D134
:1021700006F0040020B1C5F10800C0B208900DE0DF
:1021800008950BE0062D00DBBCE006F0040020B152
:10219000C5F10600C0B2089000E008950024A8E050
:1021A000B8F1100F20D106F0080020B1C4F11000E2
:1021B000C0B2079000E007942046E21704EB527289
:1021C000D21005EB071303EBC202504B9A5C214679
:1021D000E31704EB5373DB10A4EBC30C012303FAE6
:1021E0000CF302EA030915E0082C00DB84E006F09A
:1021F000080020B1C4F10800C0B2079000E00794C5
:1022000007EB4700424901EB4000415D0120A0403F
:1022100001EA000906F0010018B1B9F1000F00D180
:1022200065E006F0020030B1B9F1000F01D10120E4
:1022300000E00020814606F0100010B906F02000F2
:10224000E8B3079804F040FF029032488169029891
:1022500004F082FF0490089804F036FF01902D48A6
:102260004169019804F078FF02902A4801680298B9
:1022700004F0C6FD0390049905F06CF806900798E9
:1022800004F022FF029023484169029804F064FFA1
:102290000490089804F018FF01901E488169019885
:1022A00004F05AFF02901B484168029804F0A8FD10
:1022B0000390049904F0A4FD0590059800E00CE05B
:1022C00004F0CEFE0490069804F0CAFE0390014686
:1022D0004846049A00F0E0F808E0079800EB0B028B
:1022E000089800EB0A01484600F0D6F800BF601CD1
:1022F000C4B2102CFFF654AF00BF681CC5B2082D45
:10230000FFF633AF00BF09B0BDE8F08FE0760008FC
:10231000B8740008441A00202DE9F04F87B08046B9
:10232000894692461D4600260024A34600200690BA
:1023300005900490002700BF9CE005F0040020B148
:10234000C6F1100000F0FF0B01E006F0FF0B0024C7
:102350008CE005F0080020B1C4F11000C0B2069076
:1023600001E0E0B206902046E21704EB5272D21070
:1023700006EB02130AEB0A12DFF804C10CEB42026F
:10238000921CD25C2146E31704EB5373DB10A4EBE1
:10239000C30C012303FA0CF302EA030705F0010062
:1023A00008B107B961E005F0020020B10FB90120C2
:1023B00000E00020074605F0100018B905F02000E5
:1023C000002849D0069804F07FFE01902D488169CD
:1023D000019804F0C1FE0390584604F075FE009089
:1023E00028484169009804F0B7FE0190254801682B
:1023F000019804F005FD0290039904F0ABFF0590ED
:10240000069804F061FE01901E484169019804F0AD
:10241000A3FE0390584604F057FE009019488169C6
:10242000009804F099FE019016484168019804F064
:10243000E7FC0290039904F0E3FC0490049804F094
:102440000FFE0390059804F00BFE029001463846FB
:10245000039A00F021F807E0069800EB09020BEB65
:102460000801384600F018F800BF641C102CFFF675
:1024700070AF761C102EFFF660AF07B0BDE8F08F8E
:10248000D07C0008441A002010B5024800F0DFFF9D
:1024900010BD000044160020F0B5054600200026BF
:1024A000012300292DDB80292BDA002A29DB402A91
:1024B00027DA1446D71702EB5777C7F3C700D717A9
:1024C00002EB5777FF10A2EBC707FEB203E05C06F2
:1024D000230E741EE6B2002EF9DC0A4C04EBC01485
:1024E000645C9C43074F07EBC0177C54002D08DD4C
:1024F000044C04EBC014645C1C43024F07EBC01790
:102500007C54F0BD441600202DE9F84F074689465B
:10251000154698464FF0000B2846FEF723F800F0CA
:10252000FF0A00242CE0285D7F2809DCCDF800801C
:102530002A5D102349463846FFF702FE08371DE0A2
:10254000285D7F281ADD28194078295D40EA012B93
:10255000002611E006EB06100B4931F81000584533
:1025600008D14346324649463846FFF7D5FE103774
:10257000601CC4B2701CC6B2432EEBD3601CC4B244
:102580005445D0DBBDE8F88FD07C0008F0B5044698
:102590000D461E4600232046114604B9F0BD15E045
:1025A000AB420AD107782C2F07D0077801F8017BBE
:1025B00097197F1E8F4203D80BE0AB4200DD08E085
:1025C00007782C2F01D15F1CBBB2401C0778002F6D
:1025D000E6D100BF00270F7000BFDFE701460020F3
:1025E000880A80027047000070B5054605EB85003B
:1025F0000F4901EB401000F1540428462168884738
:102600002846616988472846A16888472846616945
:102610008847284661688847284661698847284670
:1026200021688847284661698847002070BD0000FE
:102630009021002010B504460A2001F014FF10BDBF
:102640002DE9F04705460E4617469846DDF82090DE
:1026500005EB8500254901EB401000F1540402F020
:10266000D1F808B9BDE8F08705EB85001F4901EBFB
:102670004010066005EB850001EB4010476005EB5C
:10268000850001EB4010C0F8088005EB850001EBE8
:102690004010C0F80C90164820601648606016483C
:1026A000A0601648E0601648206116486061164830
:1026B000A0611648E061164820621648606216481C
:1026C000A0621648E0621648206316486063164808
:1026D000A0631648E06316482064164860641648F4
:1026E000A0642846A169884700BFBBE7902100206D
:1026F000892A0008B12A0008D92A0008012B0008FD
:10270000292B000835260008112D0008BD2B0008D4
:10271000092C0008E92500083D290008C92C0008FB
:10272000592B000889290008692A0008552C00083F
:10273000ED290008552800083D2700082DE9F05F25
:1027400080460E4615469946DDE90AA708EB880043
:102750003F4901EB401000F154044FF0000B40469C
:10276000A16988474046216A88474046E169884711
:1027700010B14FF0FF3B69E006F0FE014046226BCE
:1027800090474046E16A884728B14046216A884719
:102790006FF0010B5AE0B9F1010F0DD1E9B24046DB
:1027A000226B90474046E16A884708B34046216A59
:1027B00088476FF0020B49E0290A4046226B904798
:1027C0004046E16A884728B14046216A88476FF051
:1027D000030B3BE0E9B24046226B90474046E16A7A
:1027E000884728B14046216A88476FF0040B2DE0E6
:1027F0004046E1698847F0B240F001014046226B53
:1028000090474046E16A884728B14046216A884798
:102810006FF0050B1AE011E04046616B88478AF8BB
:102820000000012F03D14046A16A884702E04046DC
:10283000616A88470AF1010A781E87B2002FEBD13E
:102840004046216A88470020BDE8F09F5846FBE7D4
:10285000902100202DE9F05F06460F461546984668
:10286000DDE90A9A4FF0000B06EB8600324901EBD6
:10287000401000F154043046216A88473046E1692F
:10288000884710B14FF0FF3B53E007F0FE013046A0
:10289000226B90473046E16A884728B13046216A6A
:1028A00088476FF0010B44E0B8F1010F0DD1E9B298
:1028B0003046226B90473046E16A884708B330467D
:1028C000216A88476FF0020B33E0290A3046226BF9
:1028D00090473046E16A884728B13046216A8847E8
:1028E0006FF0030B25E0E9B23046226B904730468B
:1028F000E16A884728B13046216A88476FF0040BA7
:1029000017E009E099F800103046226B90473046F6
:10291000E16A884709F10109BAF10000AAF1010151
:102920001FFA81FAEED13046216A88470020BDE8BF
:10293000F09F5846FBE700009021002070B5054647
:1029400005EB85000F4901EB401000F154042846C7
:10295000216888472846616988472846E168884792
:102960002846616988472846616888472846616922
:10297000884728462168884728466169884700209B
:1029800070BD0000902100202DE9F0410646082787
:10299000002506EB8600144901EB401000F15404B9
:1029A0003046E168884713E06806050E3046216826
:1029B00088473046616988473046616888473046B5
:1029C0006169884730462169884708B145F00105AB
:1029D000381EA7F10101CFB2E6D130462168884701
:1029E0002846BDE8F0810000902100202DE9F0414B
:1029F0000746884616461D4607EB8700194901EB36
:102A0000401000F154043846E169884700B127E0DE
:102A100008F0FF0040F001013846226B904738462D
:102A2000E16A884718B13846216A884718E00FE004
:102A30003846616B88473070012D03D13846A16A52
:102A4000884702E03846616A8847761C681E85B26E
:102A5000002DEDD13846216A88470020BDE8F0817D
:102A60000120FBE79021002070B5044604EB8400B0
:102A7000044901EB401000F154052046296A8847BB
:102A8000002070BD9021002010B5044604EB8402A4
:102A9000064B03EB4212928991B204EB840203EBE2
:102AA00042129068FFF739FA002010BD90210020F3
:102AB00010B5044604EB8402064B03EB42129289E4
:102AC00091B204EB840203EB42129068FFF727FAFD
:102AD000002010BD9021002010B5044604EB8402B4
:102AE000064B03EB4212928891B204EB840203EB93
:102AF00042121068FFF711FA002010BD902100204B
:102B000010B5044604EB8402064B03EB4212928894
:102B100091B204EB840203EB42121068FFF7FFF955
:102B2000002010BD9021002010B5044604EB840263
:102B3000084B03EB4212928891B204EB840203EB40
:102B400042121068FFF7E0F9012800D110BD002003
:102B5000FCE70000902100202DE9F04106460D46DB
:102B6000082706EB8600144901EB401000F15404DD
:102B70001AE030462168884730466169884705F089
:102B8000800018B13046E168884702E03046A1680D
:102B900088476806050E3046616988473046616897
:102BA0008847304661698847381EA7F10101CFB2D6
:102BB000DFD1BDE8F08100009021002070B505460E
:102BC00005EB85000F4901EB401000F15404284645
:102BD000E1688847284661698847284661688847D0
:102BE0002846616988472846A16888472846616960
:102BF0008847284621688847284661698847002019
:102C000070BD00009021002070B5054605EB8500E1
:102C10000F4901EB401000F1540428462168884711
:102C20002846616988472846A1688847284661691F
:102C3000884728466168884728466169884728464A
:102C4000E1688847284661698847002070BD000018
:102C5000902100202DE9F04106460F461546984682
:102C600006EB8600174901EB401000F15404304692
:102C7000E169884700B122E007F0FE013046226B8F
:102C800090473046E16A884718B13046216A884744
:102C900015E007E029783046226B90473046E16A1C
:102CA00088476D1CB8F10000A8F101011FFA81F8F6
:102CB000F0D13046216A88470020BDE8F08101202C
:102CC000FBE700009021002070B5054605EB85006C
:102CD0000E4901EB401000F1540428462168884752
:102CE000284661698847284661688847284661699F
:102CF000884728462169884706462846216888472C
:102D0000284661698847304670BD00009021002048
:102D100038B50446002000900121082000F01CFC7A
:102D200014208DF8030004EB8400254901EB4010CA
:102D3000808880B2ADF8000003208DF8020004EB1B
:102D400084011F4A02EB411108686946FFF708F841
:102D500014208DF8030004EB8400194901EB4010A6
:102D6000808980B2ADF8000003208DF8020004EBEA
:102D70008401134A02EB411188686946FEF7F0FFAF
:102D800004EB84020E4B03EB4212928891B204EBE7
:102D9000840203EB42121068FFF7BFF804EB8402D1
:102DA000074B03EB4212928991B204EB840203EBCE
:102DB00042129068FFF7B1F8642001F049FB38BD7A
:102DC0009021002000BFFEE710B5044A042104480A
:102DD00000F09EF801200349087010BD3937000843
:102DE0005C010020580100200348007810B1002049
:102DF00001490870704700005801002021B1028885
:102E000042F40072028004E002884FF6FF531A4039
:102E10000280704738B5002400BF54E000200090C5
:102E20002A4901EB04118868012100F095FB01217A
:102E30002748FFF721F8254800EB04108088ADF8FB
:102E4000000010208DF8030003208DF802001F49B8
:102E500001EB041108686946FEF782FF1B4800EB8E
:102E60000410007B01280AD1184A02EB0412918851
:102E7000164A02EB04121068FFF751F81EE01348DF
:102E800000EB0410007B50B9104A02EB0412918849
:102E90000E4A02EB04121068FFF73FF80EE0002024
:102EA0000A4901EB04110873084A02EB04129188E5
:102EB000064A02EB04121068FFF72FF800200549BC
:102EC0000855601CC4B2022CA8DB38BDBC00002031
:102ED00000023000A800002010B500216B20FEF792
:102EE00059FC07211920FEF755FC06211A20FEF790
:102EF00051FC18211B20FEF74DFC01211C20FEF780
:102F000049FC10BD00BFFEE700487047BC0100202F
:102F100003460C48006810B94FF0FF30704709486D
:102F20000068006908B10020F8E7064800680361FE
:102F300004480068017712B102480068C2600020AE
:102F4000ECE70000BC01002070B500241F480568B4
:102F5000006808B9601E70BD00F0BAF9041E01D106
:102F6000401EF8E7A97F01EB4101286950F83100C4
:102F70006060A97F01EB4101286900EBC100406856
:102F8000A060002020612077E868E060A97F01EB65
:102F90004101286900EBC10080686061A97F01EBF5
:102FA0004101286900EBC1000069A0610020A07701
:102FB0000120E0772560054804600068406918B189
:102FC00002490968486980470020C4E7BC01002025
:102FD00070B5044620480568006810B94FF0FF300E
:102FE00070BD1D480068006810B94FF0FF30F7E76A
:102FF000194800680068184908602846FEF7A4FDD3
:10300000002515480068006913490968897F01EBAC
:10301000410100EBC100C06878B100200E49096889
:10302000C8770D49096809690B4A1268927F02EB5B
:10303000420201EBC201C868804707480068406946
:1030400018B105490968486980471CB10020024948
:10305000096888770020C3E7BC01002070B50546E9
:1030600000241648006808B1601E70BD0020144995
:10307000087000F02DF9041E01D1401EF5E7002074
:103080000E490871286860606868A06000202060B0
:10309000A86860610020E060E868A061002020610D
:1030A0002077A0776077084604600068406910B117
:1030B0000968486980470020D7E70000BC0100206C
:1030C000C401002001461448006810B94FF0FF30D9
:1030D000704711480068827F0F480068007F401EDB
:1030E000824207DA0C480068807F401C0A4A126856
:1030F00090770FE021B10020074A1268907709E02D
:1031000005480068007F401E034A126890774FF020
:10311000FF30DDE70020DBE7BC010020014612485C
:10312000006810B94FF0FF3070470F480068807F8B
:10313000002807DD0C480068807F401E0A4A12689C
:1031400090770EE039B108480068007F401E064ABB
:103150001268907705E00020034A12689077401EBD
:10316000E2E70020E0E70000BC01002030B5ABB092
:103170003948006818B94FF0FF302BB030BD3648E1
:103180000068006900285CD033480068056932484F
:103190000068007F8DF804002F480068807F8DF85C
:1031A00005002D480068407F8DF806002A48007908
:1031B000E8B12948006880680290002410E004EB20
:1031C000440005EBC000416803A840F8241004EB5C
:1031D000440005EBC000416917A840F82410641CA6
:1031E0009DF80400A0421EDD142CE8DB1BE01A4809
:1031F00000684068029000240FE004EB440055F89A
:10320000301003A840F8241004EB440005EBC00084
:10321000416917A840F82410641C9DF80400A042DE
:1032200001DD142CE9DB0C480068C06820B10A48B5
:103230000068C16801A888479DF80600064909682A
:10324000487705480068806918B1034909688869AA
:103250008047002091E70000BC010020704700007B
:1032600070B5002100230F22C47804B3154C2468E4
:1032700004F4E064C4F5E064210AC1F10403CA4027
:10328000447804FA03F184781440214309010E4C78
:103290000678A155047804F01F050124AC40057898
:1032A0006D11AD0005F1E025C5F8004109E0047895
:1032B00004F01F050124AC40044D0678761145F852
:1032C000264070BD0CED00E000E400E080E100E08D
:1032D0000020074909780A2909DA0649044A1278C0
:1032E00001EB421002490978491C014A11707047EC
:1032F000C4010020E01A002070B5002419E004F198
:10330000B001C8B2002100F0BEF80021084600F06C
:10331000BAF80021102000F0B6F8002505E00121E0
:10332000002000F0B0F8681CC5B2802DF7DB601CEF
:10333000C4B2082CE3DB70BD10B5142001F088F88E
:1033400001F060FA00B910BD0021AE2000F09BF83A
:103350000021084600F097F80021102000F093F8B3
:103360000021402000F08FF80021B02000F08BF801
:103370000021812000F087F80021FF2000F083F871
:103380000021A12000F07FF80021A62000F07BF8AA
:103390000021A82000F077F800213F2000F073F80A
:1033A0000021C82000F06FF80021D32000F06BF856
:1033B0000021084600F067F80021D52000F063F8EE
:1033C0000021802000F05FF80021D82000F05BF899
:1033D0000021052000F057F80021D92000F053F813
:1033E0000021F12000F04FF80021DA2000F04BF826
:1033F0000021122000F047F80021DB2000F043F804
:103400000021302000F03FF800218D2000F03BF833
:103410000021142000F037F80021AF2000F033F82D
:1034200000BF90E770B504460D4605F1B001C8B283
:10343000002100F028F8102141EA1410002100F0CA
:1034400022F804F00F00002100F01DF870BD7CB5DB
:1034500005460026002400BF12E021460020FFF7A9
:10346000E1FF8021A81901234022CDE90001782144
:103470000020FFF7EFF906F1800086B2601CC4B2AD
:10348000082CEADB7CBD70B505460C461CB128460D
:1034900000F002FB02E0284600F0E9FA70BD0000EF
:1034A00010B5044614B1012C3CD11DE01F4800EBBF
:1034B0000410007B50B91D4A02EB041291881B4A8C
:1034C00002EB04121068FEF72AFD09E0174A02EB2E
:1034D00004129188154A02EB04121068FEF71DFDD4
:1034E0000120134908701EE0104800EB0410007B17
:1034F00050B90E4A02EB041291880C4A02EB0412F6
:103500001068FEF70CFD09E0084A02EB04129188EE
:10351000064A02EB04121068FEF7FFFC0120044982
:10352000087000E000BF00BF10BD0000BC0000201C
:10353000A80000207047000029B1064AD269024362
:10354000044BDA6104E0034AD2698243014BDA6139
:10355000704700000010024029B1064A92690243F8
:10356000044B9A6104E0034A92698243014B9A61D9
:10357000704700000010024030B5002100220024F6
:1035800000232D4D6D6805F00C0121B1042905D0F3
:10359000082923D105E0294D056022E0274D05606B
:1035A0001FE0254D6D6805F47012234D6D6805F41C
:1035B0008034022505EB92421CB9214D554305602C
:1035C0000BE01D4D6D6805F400351DB11C4D5543D4
:1035D000056002E0194D5543056002E0174D056096
:1035E00000BF00BF144D6D6805F0F0010909154DCD
:1035F0006B5C0568DD4045600F4D6D6805F4E0616A
:10360000090A104D6B5C4568DD4085600A4D6D68A8
:1036100005F46051C90A0B4D6B5C4568DD40C5601F
:10362000054D6D6805F44041890B074D6B5CC5681D
:10363000B5FBF3F5056130BD0010024000127A00C1
:1036400000093D004800002058000020704710B5D8
:1036500000F002F810BD00000CB5002001900090B1
:103660003348006840F480303149086000BF30487A
:10367000006800F4003000900198401C0190009810
:1036800018B90198B0F5A06FF1D12948006800F48D
:10369000003010B10120009001E00020009000985F
:1036A000012843D12348006840F0100021490860F8
:1036B0000846006820F0030008600846006840F0F3
:1036C000020008601A484068194948600846406886
:1036D00048600846406840F480604860084640689A
:1036E00020F47C1048600846406840F4E8104860C8
:1036F0000846006840F08070086000BF0C48006811
:1037000000F000700028F9D00948406820F003005C
:10371000074948600846406840F00200486000BF22
:103720000348406800F00C000828F9D10CBD0000E7
:10373000001002400020024070B504460025607869
:1037400010B901F045FA10E06078012802D101F0CB
:1037500091F90AE06078022802D101F01FFA04E032
:103760006078032801D101F0FBF970BD10B50A485B
:103770000068401C08490860084801780078401C2F
:10378000064A10700A2905DD002011460870044918
:103790008868804710BD00005C00002060000020A9
:1037A0004801002010B51348006840F0010011499D
:1037B000086008464068104908400E4948600846BD
:1037C00000680E4908400B4908600846006820F46C
:1037D000802008600846406820F4FE0048604FF4EE
:1037E0001F008860FFF733FF4FF000600449086056
:1037F00010BD0000001002400000FFF8FFFFF6FEC1
:1038000008ED00E010B50121880700F009F818B1B3
:103810000121880700F001F810BDCA4302827047F9
:1038200030B50246002000230024158A05EA010372
:10383000958905EA010413B10CB1012000E00020D4
:1038400030BD000008B540F22551074800F048F8A7
:1038500048B1054800F000F9C0B200900122694665
:10386000024802F003FA08BD00380140640000205D
:1038700008B540F22551074800F032F848B1054834
:1038800000F0EAF8C0B2009001226946024802F056
:10389000EDF908BD004400407800002008B540F272
:1038A0002551074800F01CF848B1054800F0D4F84D
:1038B000C0B2009001226946024802F0D7F908BD63
:1038C000004800408C00002021B1828942F400525F
:1038D000828104E082894DF6FF731A40828170472D
:1038E00070B50246002400230025002040F66A1629
:1038F000B14200D100BFC1F3421501F01F03012600
:1039000006FA03F3012D02D19689334006E0022D19
:1039100002D1168A334001E0968A33400C12012608
:1039200006FA04F41688344013B10CB1012000E00B
:10393000002070BDF0B503460024002600250020BD
:1039400040F66A17B94200D100BF1846C1F34214CD
:1039500001F01F06012707FA06F5012C01D10C30F2
:1039600004E0022C01D1103000E014301AB10768D5
:103970002F43076002E00768AF430760F0BD000017
:103980002DE9F04786B005460E460024A24600BF4A
:10399000A1460027B08900B100BF2F462C8A4CF603
:1039A000FF700440F08804432C82AC894EF6F3107B
:1039B0000440B08831890843718908430443AC81CD
:1039C000AC8A4FF6FF400440B0890443AC8201A8A2
:1039D000FFF7D2FD1F48874202D1DDF810A001E0B9
:1039E000DDF80CA0A88900F4004040B10AEBCA0041
:1039F00000EB0A1031684900B0FBF1F807E00AEB70
:103A0000CA0000EB0A1031688900B0FBF1F86420AD
:103A1000B8FBF0F004012009642101FB1089A8899A
:103A200000F4004040B1322000EBC900B0FBF1F0DF
:103A300000F00700044308E0322000EB0910642185
:103A4000B0FBF1F000F00F0004432C8106B0BDE89C
:103A5000F08700000038014001468888C0F3080064
:103A60007047C1F308028280704700BFFEE73EB591
:103A70000446002002908DF808008DF809400121CD
:103A80000DF10900CDE900019DF808200B467821D1
:103A90000020FEF7DFFE3EBD3EB50446002002904A
:103AA00040208DF808008DF8094001210DF1090032
:103AB000CDE900019DF808200B4678210020FEF793
:103AC000C9FE3EBD490050EAC12018BF04204A0D7E
:103AD00018BF40F0010040F2FF72B2EB515F08BF27
:103AE00040F00200012808BF0520704730380A283E
:103AF00001D20120704700207047014600BF704787
:103B00002DE9FF4F9FB083460F469046DBF80490A7
:103B1000DBF808001E90BBF800000C90DBF80410E6
:103B20000C98401E01EB80052298C0080A905AE3C9
:103B300001CF01C501CF01C501CF01C501CF01C52D
:103B400000201D901C901B901A90199018901790AF
:103B500016904C461E9E01CF01C501CF01C501CF75
:103B600001C501CF01C501CC159001CC149001CC49
:103B7000139001CC129001CC119001CC109001CC8B
:103B80000F900C984FEAD00AA1E201CE0D9001CC23
:103B90000E900D99159803F0DFFA09900D9914987D
:103BA00003F0DAFA08900D99139803F0D5FA07900C
:103BB0000D99129803F0D0FA06900D99119803F020
:103BC000CBFA05900D99109803F0C6FA04900D9960
:103BD0000F9803F0C1FA0390DDE90D1003F0BCFA71
:103BE000029001CE0D9001CC159009991D9803F01B
:103BF00007F91D9008991C9803F002F91C90079989
:103C00001B9803F0FDF81B9006991A9803F0F8F83A
:103C10001A900599199803F0F3F8199004991898D7
:103C200003F0EEF818900399179803F0E9F817904D
:103C30000299169803F0E4F816900D99149803F081
:103C40008BFA09900D99139803F086FA08900D9954
:103C5000129803F081FA07900D99119803F07CFAFD
:103C600006900D99109803F077FA05900D990F982A
:103C700003F072FA0490DDE90D1003F06DFA039081
:103C80000D99159803F068FA029001CE0D9001CCC1
:103C9000149009991D9803F0B3F81D9008991C9889
:103CA00003F0AEF81C9007991B9803F0A9F81B903D
:103CB00006991A9803F0A4F81A900599199803F038
:103CC0009FF819900499189803F09AF8189003999E
:103CD000179803F095F817900299169803F090F84A
:103CE00016900D99139803F037FA09900D991298D0
:103CF00003F032FA08900D99119803F02DFA07900D
:103D00000D99109803F028FA06900D990F9803F07A
:103D100023FA0590DDE90D1003F01EFA04900D99C9
:103D2000159803F019FA03900D99149803F014FAFA
:103D3000029001CE0D9001CC139009991D9803F0CB
:103D40005FF81D9008991C9803F05AF81C90079989
:103D50001B9803F055F81B9006991A9803F050F839
:103D60001A900599199803F04BF81990049918982E
:103D700003F046F818900399179803F041F817904C
:103D80000299169803F03CF816900D99129803F0DA
:103D9000E3F909900D99119803F0DEF908900D9957
:103DA000109803F0D9F907900D990F9803F0D4F902
:103DB0000690DDE90D1003F0CFF905900D991598E7
:103DC00003F0CAF904900D99149803F0C5F9039013
:103DD0000D99139803F0C0F9029001CE0D9001CC1B
:103DE000129009991D9803F00BF81D9008991C98E2
:103DF00003F006F81C9007991B9803F001F81B903C
:103E000006991A9802F0FCFF1A900599199802F089
:103E1000F7FF19900499189802F0F2FF189003998F
:103E2000179802F0EDFF17900299169802F0E8FF3C
:103E300016900D99119803F08FF909900D9910982B
:103E400003F08AF908900D990F9803F085F907900F
:103E5000DDE90D1003F080F906900D99159803F037
:103E60007BF905900D99149803F076F904900D995B
:103E7000139803F071F903900D99129803F06CF9FF
:103E8000029001CE0D9001CC119009991D9802F07D
:103E9000B7FF1D9008991C9802F0B2FF1C9007997B
:103EA0001B9802F0ADFF1B9006991A9802F0A8FF2C
:103EB0001A900599199802F0A3FF1990049918987F
:103EC00002F09EFF18900399179802F099FF17903F
:103ED0000299169802F094FF16900D99109803F02D
:103EE0003BF909900D990F9803F036F90890DDE938
:103EF0000D1003F031F907900D99159803F02CF986
:103F000006900D99149803F027F905900D991398D0
:103F100003F022F904900D99129803F01DF9039013
:103F20000D99119803F018F9029001CE0D9001CC73
:103F3000109009991D9802F063FF1D9008991C9834
:103F400002F05EFF1C9007991B9802F059FF1B902E
:103F500006991A9802F054FF1A900599199802F0E0
:103F60004FFF19900499189802F04AFF189003998E
:103F7000179802F045FF17900299169802F040FF3B
:103F800016900D990F9803F0E7F80990DDE90D10F0
:103F900003F0E2F808900D99159803F0DDF807900A
:103FA0000D99149803F0D8F806900D99139803F022
:103FB000D3F805900D99129803F0CEF804900D995E
:103FC000119803F0C9F803900D99109803F0C4F804
:103FD000029001CE0D9001CC0F9009991D9802F02E
:103FE0000FFF1D9008991C9802F00AFF1C9007997A
:103FF0001B9802F005FF1B9006991A9802F000FF2B
:104000001A900599199802F0FBFE199004991898D6
:1040100002F0F6FE18900399179802F0F1FE17903F
:104020000299169802F0ECFE1690DDE90D1003F0EF
:1040300093F809900D99159803F08EF808900D9952
:10404000149803F089F807900D99139803F084F8F9
:1040500006900D99129803F07FF805900D9911982C
:1040600003F07AF804900D99109803F075F8039016
:104070000D990F9803F070F80290AAF1010A0999BE
:104080001D9802F0BDFE1D9008991C9802F0B8FE24
:104090001C9007991B9802F0B3FE1B9006991A9882
:1040A00002F0AEFE1A900599199802F0A9FE199037
:1040B0000499189802F0A4FE18900399179802F03A
:1040C0009FFE17900299169802F09AFE1690BAF188
:1040D000000F7FF45AAD0C9800F0070A63E001CEA0
:1040E0000D9001CC0E900D99159803F035F80990BC
:1040F0000D99149803F030F808900D99139803F077
:104100002BF807900D99129803F026F806900D9958
:10411000119803F021F805900D99109803F01CF800
:1041200004900D990F9803F017F80390DDE90D1036
:1041300003F012F8029014981590139814901298A6
:10414000139011981290109811900F9810900E984B
:104150000F9009991D9802F053FE1D9008991C9824
:1041600002F04EFE1C9007991B9802F049FE1B902E
:1041700006991A9802F044FE1A900599199802F0CF
:104180003FFE19900499189802F03AFE189003998E
:10419000179802F035FE17900299169802F030FE3B
:1041A0001690AAF1010ABAF1000F98D109F120097D
:1041B0001D9848F8040B1C9848F8040B1B9848F805
:1041C000040B1A9848F8040B199848F8040B18982F
:1041D00048F8040B179848F8040B169848F8040B95
:1041E0000A98401E0A900A9800287FF4A1AC2298F1
:1041F00000F007000A901FE001CF01C500201D90CC
:104200004C461E9E0C980B9000BF02CE01CC02F0D3
:10421000A3FF01901D9902F0F3FD1D900B98401E25
:104220000B900B980028F0D11D9848F8040B09F169
:1042300004090A98401E0A900A980028DCD1DBF88D
:1042400004500C98401E4FEA900A0DE059F8040BF8
:1042500001C559F8040B01C559F8040B01C559F8FB
:10426000040B01C5AAF1010ABAF1000FEED10C98B6
:10427000401E00F0030A04E059F8040B01C5AAF13E
:10428000010ABAF1000FF7D123B0BDE8F08F2DE994
:10429000F04104460D4617461E46DDF8188025807D
:1042A000A760A8F10100284481003046FCF72BFAF2
:1042B0006660BDE8F081000010B500F055F838B92F
:1042C00014210548FCF71FFA00F008F800F028F860
:1042D00000F052FD10BD0000D0220020C820074988
:1042E00048703C200870552088702420C87008460B
:1042F00003A30ECB001D0EC070470000D02200208B
:1043000031393535363633323439300010B54FF463
:104310000061024801F013FF10BD000000F8000822
:1043200010B510220A494FF0FF3000F05BF8084941
:1043300008611422074801F083FF1422064905484A
:1043400001F046FF0446214604A0FBF799FF10BD8B
:10435000D022002000F80008E422002072657320BB
:104360003D2025640D0A000010B5FFF7CFFF142291
:1043700009490A4801F02CFF102207494FF0FF308D
:1043800000F030F8044604480069A04201D0002043
:1043900010BD0120FCE70000D022002000F800083A
:1043A00070B504462546EA7EC2F34301A87E01F0BB
:1043B000E1FA70BD70B5044600262546AA7E02EBE0
:1043C0004202074B03EB82029188AA7E02EB420273
:1043D00053F82200FDF798FD0646304670BD0000F8
:1043E0000C010020F0B503460024184615E00F5DCF
:1043F000784008250DE000F0010CCCF10006DFF854
:1044000020C006EA0C0C8CEA5000A5F1010C0CF05F
:10441000FF05002DEFDC641C521E002AE7D1F0BD21
:104420002083B8ED014681F0A530704706484FF073
:10443000E0214861FF200549087000204FF0E0218D
:1044400088610720086170473F19010023ED00E0F3
:1044500000B5014601F022FF421800BF01F01EFF27
:104460009042FBD300BDF0B5034600224FF0E0269A
:10447000746903FB04F64FF47A77B6FBF7F54FF057
:10448000E026B16910E04FF0E026B06988420BD019
:10449000884202D20E1A324402E0261A0E443244F6
:1044A0000146AA4200D300E0EDE700BFF0BD0000E6
:1044B00070B500269148046891480078401EC5B246
:1044C00016E1E07E4009002809DDA089401CA0819A
:1044D000A0894FF6FF71884201DB208BA081E07E2E
:1044E000400920B1012822D002281FD1CEE00120AE
:1044F000A84084490968084098B10020A081E08163
:1045000000BFE07E20F01E00E076A06810B12046DB
:10451000A168884700BFE07E20F0E0002030E07610
:1045200004E0E07E20F01E001630E076D6E00120A8
:10453000A84074490968084000285FD0E089002835
:104540001DDDA089218A884218DD00BFE08903288B
:1045500001DAE08900E00320E17E60F34401E176C6
:10456000A06810B12046A168884700BFE07E20F017
:10457000E0002030E0760020A081E08185E0A08985
:10458000218B884210DBE07EC0F3430008287CD0FA
:1045900000BFE07E20F01E001030E076A06810B171
:1045A0002046A168884770E0A089E18A884210DB34
:1045B000E07EC0F34300062867D000BFE07E20F015
:1045C0001E000C30E076A06810B12046A168884734
:1045D0005BE0A089A18A884257DBE07EC0F34300FC
:1045E000042852D000BFE07E20F01E000830E076A4
:1045F000A06810B12046A168884746E0A089218BB9
:10460000884210DB00BFE07E20F01E001230E07612
:10461000A06810B12046A168884700BFE07E20F066
:10462000E000E07631E0A089E18A884210DB00BF3B
:10463000E07E20F01E000E30E076A06810B120462B
:10464000A168884700BFE07E20F0E000E0761CE033
:10465000A089A18A884210DB00BFE07E20F01E0006
:104660000A30E076A06810B12046A168884700BFF4
:10467000E07E20F0E000E07607E0E07E20F0E00061
:104680004030E076E089401CE08127E00120A8402E
:104690001C490968084038B1E07E20F0E000203075
:1046A000E0760020A08118E0A089218A884214DDEC
:1046B00000BFE089032801DAE08900E00320E17E01
:1046C00060F34401E176A06810B12046A1688847F4
:1046D00000BFE07E20F0E000E07600BF00BFE07E9B
:1046E0004009002801DD701CC6B22468681EC5B2EE
:1046F000002C7FF4E6AE304670BD0000580200206A
:10470000640200206002002070B500260C48046896
:104710000C480078401EC5B207E020466168884713
:10472000A84006432468681EC5B214B1606800281A
:10473000F3D1F0430449096848400449086070BD5A
:1047400058020020640200205C0200206002002069
:1047500001461C48026819B11B480078202802D97C
:104760004FF0FF30704705E08A4202D14FF0FF3032
:10477000F8E71268002AF7D1124800680860C87E7E
:1047800020F0E000C876C87E20F01E001630C87603
:1047900000208881C8810F2008820A480160C87EF5
:1047A00000F00100084B1B789840084B1B68184329
:1047B000064B186004480078401C034B18701846DC
:1047C0000078CFE758020020640200205C0200203D
:1047D00010B500F017F808B9002010BDFFF794FFDE
:1047E000FFF766FEF9E7000000BF054A128802F0F5
:1047F0004002002AF9D0C2B2014B1B1D1A8070473B
:104800000044004001480078704700006A02002020
:1048100010B50446072C1AD2DFE804F01904060884
:104820000A0C17000BA010BD0CA0FCE70DA0FAE7C6
:1048300010A0F8E7124A13A11648FBF72DFD154901
:1048400015A0FBF71DFD1348EDE71848EBE7002026
:10485000E9E7000041540D0A0000000041542646DB
:104860000D0A000041542B435343533D2247534DFF
:10487000220D0A0041542B434D47463D310D0A009D
:10488000D422002041542B434D47533D222573220F
:104890000D0A000024160020B1A8BEAFB5E7BBB0DA
:1048A000D6B8C1EEC9E8D6C33A2573007515002005
:1048B0000148007A704700008421002030B504468A
:1048C0000D4602231B4A19462046FDF75FFE194894
:1048D0002E3890F82E00412800D030BD0B23154A09
:1048E0002E3A01212046FDF751FE0823114A233AB2
:1048F00009212046FDF74AFE02230E4A103A042100
:104900002046FDF743FE02230A4A921E0621204656
:10491000FDF73CFE1423074A1B3A03212046FDF70E
:1049200035FE1423034A0E3A05212046FDF72EFEDC
:1049300000BFD2E7621100202DE9F04100F024FE13
:10494000FFF7B6FF20B9002035490880BDE8F081A7
:1049500001F052F900F0A0FD00F08CFD3048018814
:1049600030A0FBF78DFC2E480088962855DB962159
:10497000314800F075FE0446962230492E4800F07A
:10498000C5FE054621462EA0FBF77AFC3149284694
:1049900002F0E2FB804602F063FB642190FBF1F23F
:1049A00001FB1206284602F05BFB074632463946F9
:1049B00029A0FBF765FC0020194908801E2C09DDA1
:1049C000822C07DA04F11400274908800846008881
:1049D000264908822649284602F08AFC0AD21D4947
:1049E000284602F085FB05D21F48456040681F49F4
:1049F000486111E01C4845600146486802F030FB00
:104A00000A2190FBF1F201FB120000F15A06304638
:104A100002F042FB1549486100BF00BF96E7000065
:104A20006802002063616368655F636F756E74651B
:104A3000722025640D0A0000781E0020201C002032
:104A40004852202564202074696D65732F6D696E4E
:104A50000D0A00000000C84253704F322025642E1A
:104A600025640D0A00000000842100208805002034
:104A70000000BC4270B50020FDF78EFA802123486B
:104A8000FBF71FFE2248028A22A12048FBF704FC04
:104A900000231E4A19461846FDF736FD80211B48A3
:104AA000FBF70FFE1A49486902F07EF904462246D8
:104AB0000B461CA11548FBF7EFFB0023134A1021FE
:104AC0001846FDF721FD80211048FBF7FAFD194A31
:104AD00019A10E48FBF7E0FB00230C4A20211846E1
:104AE000FDF712FD80210948FBF7EBFD114A0D3A55
:104AF00013A10648FBF7D0FB0023044A30211846D7
:104B0000FDF702FDFDF7C0FC70BD0000601A00203B
:104B100088050020D0C4CCF83A2564B4CE2FB7D68F
:104B200000000000D1AAD1F53A25302E31662525A6
:104B30000000000054110020BEADB6C83A25730035
:104B4000CEB3B6C83A25730010B5034A0621034810
:104B5000FEF7DEF910BD0000415E0008C80100202C
:104B600008B50020FDF718FA0020074B202240214D
:104B700000901020FDF7D5F9002204A13020FDF7A8
:104B8000F4F9FDF781FC08BDB6850008D0C4CCF867
:104B9000D1AAD1F5B2C9BCAFD6D0000008B500206B
:104BA000FDF7FAF90020074B202240210090102049
:104BB000FDF7B7F9002204A13020FDF7D6F9FDF783
:104BC00063FC08BDB6860008C9E8D6C30000000033
:104BD00008B50020FDF7E0F980211948FBF771FDC9
:104BE00018A11748FBF758FB002215491046FDF79E
:104BF000BCF918480078012808D10020164B202263
:104C0000114600901020FDF78CF907E00020134BAF
:104C10002022114600901020FDF783F980210848DA
:104C2000FBF74FFD0B48027E0DA10548FBF734FB57
:104C3000002203493020FDF798F9FDF725FC08BD57
:104C4000601A0020C0CFC8CBBCE0B2E2CFB5CDB374
:104C50000000000088050020B6870008368800089C
:104C6000CCE5CEC23A2564A1E600000038B50024A8
:104C700000BF22E00020009004EB4401314A02EB27
:104C8000810188680121FEF767FC04EB44002D498F
:104C900001EB80008088ADF8000048208DF803000B
:104CA00003208DF8020004EB4401264A52F821004B
:104CB0006946FDF755F8601CC4B2052CDADB002408
:104CC00039E0C4EBC400204901EB800084761F4822
:104CD000C4EBC4011C4A02EB810148601C48C4EBD0
:104CE000C40102EB81018860C4EBC400114601EBF2
:104CF0008000C07E20F00100C4EBC40102EB810102
:104D0000C8764B20C4EBC40102EB81018882962057
:104D1000C4EBC40102EB8101C882E120C4EBC401F1
:104D200002EB81010883C4EBC40102EB8100FFF7B1
:104D30000FFD601CC4B2052CC3DB012005490870BF
:104D400038BD00000C010020A8100020B543000869
:104D5000A14300084801002070B504460D460448F0
:104D60002A46214603680348FEF7CAFE70BD0000CC
:104D700040000020A805002000B587B004A800F07E
:104D8000ADFF0C2201A90F4801F022FA0198FFF7AC
:104D900049FB049988420FD10298FFF743FB05991C
:104DA000884209D10398FFF73DFB0699884203D159
:104DB00001200549087002E000200349087007B08F
:104DC00000BD000000F200086A02002010B504488F
:104DD000007800B910BDFFF7FBFC00BFFAE7000048
:104DE0004801002010B504460748007818B920464D
:104DF000FEF756FB06E004480078012802D1204661
:104E0000FCF7D6FC10BD0000A800002086B0FFF71C
:104E10000DFB00F0B3FE4FF4E13001F097FA01F022
:104E200043FAFFF749FA4020EA4B802219460090E6
:104E30000120FDF705FC4FF48070E64B4200194657
:104E400000900020FDF7FCFBE34948688047E349F8
:104E50004868804700F00CFDFEF73EF8E04801F09E
:104E600009F9FEF769FAFEF747FA0020FDF794F812
:104E70000022DCA11020FDF778F80022DBA1202021
:104E8000FDF773F8FDF700FBDBA0DD490860DDA04E
:104E90004860DF488860DF48C8600846FEF7DEF8F3
:104EA000CD4948688047CD4948688047FCF778FD80
:104EB0008EE1D948006800F087FD142806D301F080
:104EC000EDF9D5490860C54988688047D34800682E
:104ED00000F07AFDB0F5FA7F05D301F0DFF9CF4994
:104EE0000860FEF743F9CE48006800F06DFD42F21D
:104EF0001071884232D301F0D1F9C949086000200D
:104F0000C8490870C8A0FBF7BBF9CB48007810B9B6
:104F10000120C4490870C348007801281ED101024D
:104F2000C648FBF7F0FBC449486901F03DFF044661
:104F30000D46C148007EC249A1F10D02CDE90045F0
:104F4000CDE902210490BC48028ABE49BB48FBF768
:104F5000A3F9A348D0F89810B8488847BA48006821
:104F600000F032FDB0F5FA7F5BD301F097F9B64956
:104F700008600020AB490870AF48007810B90120E4
:104F8000087039E0AC48008AB0490978884205DBEE
:104F9000A948008AAD494978884206DDA648008ABA
:104FA00018B101209F49087026E0A849887802F0CE
:104FB0008BF80446A0484169204602F099F912D2C4
:104FC0009D49486901F0F0FE06460022134601F0B3
:104FD00001FE04469E4A9F4B01F0C6FD03D201200C
:104FE0009049087008E09448007E9849C978884242
:104FF00002DD01208B4908708A480078012808D119
:1050000075488168002088477348C1680120884737
:1050100007E07148C168002088476F488168012017
:1050200088478D48006800F0CFFC8C4909688842A9
:1050300011D301F033F988490860FFF77DFCFFF7D1
:1050400037FC012803D10A208449086003E04FF4AB
:105050007A70824908608248006800F0B5FCB0F5BB
:10506000FA7F63D301F01AF97D4908607D4800F0AA
:10507000B1FC7C480068704948607A4840688860A4
:1050800078488068C860486801F08EFE04460022B7
:10509000754B01F069FD09D26749486801F084FE4B
:1050A00004460022714B01F025FC13D36249486885
:1050B00001F07AFE044600226D4B01F055FD0ED240
:1050C0005D49486801F070FE04460022694B01F01A
:1050D00011FC04D25848C069401C5749C861564960
:1050E000486801F061FE04460022634B01F03CFD7C
:1050F00016D25149486801F057FE044600225D4B24
:1051000001F0F8FB0CD25D480078401C5B49087048
:10511000084600780A2809DD00204749087005E0A4
:10512000002056490870012043490870544800681F
:1051300000F04AFC642810D301F0B0F85049086030
:105140004FF480724F49504800F05FFD4F4908808E
:10515000084601884B4800F09BFC4D48006800F071
:1051600033FCB0F5FA6F0AD301F098F848490860AB
:10517000FCF7D0FB0A2190FBF1F02F490876454857
:10518000006800F021FC642822D301F087F841492F
:1051900008604FF480724049404800F036FD4049B5
:1051A0000880084601883C4800F0B0FC0C480079B3
:1051B00070B10B4801680279A03050F82200084411
:1051C00034490968884203D20549D1F894008047E0
:1051D0006FE60000000C0140A800002048010020FC
:1051E00064150020C0CFC8CB00000000BCE0BBA409
:1051F000CFB5CDB300000000D6F7B2CBB5A5000007
:10520000780500204D61696E204D656E75000000C7
:10521000C92D0008E92D0008040000200800002026
:10522000100000203C000020B6CCD0C5B1A8BEAF15
:10523000C5D0B6CF0D0A0000880500206C04002000
:1052400054110020848900080C000020D022002086
:1052500048AFBC9AF2D77A3E140000201800002014
:105260001C0000206C0500200000444000804D40E0
:105270000000694000806B4000004E403D0000206F
:10528000200000206C020020780000200000002098
:1052900028000020240000206C030020640000206F
:1052A0000200002010B50446FDF72EFE0068807F46
:1052B00028B1FDF729FE0068807F01280AD1022C61
:1052C00003D10020FDF7FEFE13E094B90020FDF7A6
:1052D00025FF0EE0FDF718FE0068807F022808D148
:1052E000042C02D1FDF730FE03E014B90020FDF7D5
:1052F00015FF10BD10B50446032C03D10020FDF7A7
:10530000E1FE04E0012C02D10020FDF707FFFDF7CC
:10531000FBFD0068807F18BB022C0FD154484078F9
:10532000C82803DBC82052494870A0E050484078A4
:10533000401C4F494870FEF7F3FF98E0002CF4D171
:105340004B484078782803DC7820494948708EE043
:1053500047484078401E46494870FEF7E1FF86E026
:10536000FDF7D2FD0068807F012823D1022C0FD1E8
:105370003F4800783C2803DB3C203D49087076E03C
:105380003B480078401C3A490870FEF7C9FF6EE0C0
:10539000002C6CD136480078002803DC002034490A
:1053A000087064E032480078401E31490870FEF70A
:1053B000B7FF5CE0FDF7A8FD0068807F022822D1DE
:1053C000022C0FD12A488078642803DB6420284906
:1053D00088704CE026488078401C25498870FEF78C
:1053E0009FFF44E034BB22488078002803DA002085
:1053F0001F4988703BE01E488078401E1C49887019
:10540000FEF78EFF33E0FDF77FFD0068807F032805
:1054100022D1022C0FD11648C0782B2803DB2B2079
:105420001349C87023E01248C078401C1049C87066
:10543000FEF776FF1BE0D4B90D48C078212803DCC5
:1054400021200B49C87012E00948C078401E084965
:10545000C870FEF765FF0AE0FDF756FD0068807F23
:10546000052804D1042C02D10120FDF7B1FD10BDA7
:10547000D022002008B500BF01226946002000F0BC
:10548000D9F90028F8D000BF01226946104600F083
:10549000D1F90028F8D008BD30B5BFB000240025F0
:1054A000B4223449072000F0C5F900BF3AE0314981
:1054B000095D0A042F4B611C595C42EA0121A21CC0
:1054C0009A5C1143C1F3110001F0E6FD03A941F814
:1054D0003500284AE11C515C0A04264B211D595C09
:1054E00042EA0121621D9A5C1143C1F3110001F0EF
:1054F000D3FD03A901EBC501486003A951F83500AC
:105500001D4901F0F5FD07D903A901EBC501486864
:10551000194901F0EDFD00D802E0681CC5B200BFDA
:10552000A01DC4B2B42CC2DB00241FE003A901EB10
:10553000C40001A9FFF710FC03A901EBC401081D79
:1055400002A900F0D9FB0D490D4A1288019841F8D3
:1055500022000C480A4A1288029940F82210084892
:105560000088401C06490880601CC4B2AC42DDDBE8
:105570003FB030BDD02000200050C347781E00202F
:1055800068020020201C00201CB500243C22214978
:10559000072000F04FF900BF35E01E49095D0A04FD
:1055A0001C4B611C595C42EA0121A21C9A5C11430C
:1055B000C1F3110001F070FD0090164AE11C515C2E
:1055C0000A04144B211D595C42EA0121621D9A5CB8
:1055D0001143C1F3110001F05FFD01900E490098E5
:1055E00001F086FD04D90C49019801F081FD08D82D
:1055F0000A48007A08B100F09BFD002007490872B4
:105600001CBDA01DC4B23C2CC7DB0120034908729D
:1056100000BFF5E7D02000200050C34784210020C0
:1056200008B509480068094B094A1D21009009483E
:10563000FEF72DFE04480068074B054A1D21009027
:105640000648FEF724FE08BD40000020C0050020EB
:1056500044740008A805002034060020B40500208A
:105660002DE9F04705460E464FF00008002407E0FC
:1056700055F82410404601F0C3FB8046601C84B2FC
:10568000B442F5DB304601F01FFD814649464046F5
:1056900001F024FC8046002410E055F82400414627
:1056A00001F026FE08D205EB84014868414601F06E
:1056B0001FFD01D2274603E0601C84B2B442ECDB3C
:1056C00000BF601C84B211E055F82400414601F08F
:1056D0000FFE09D205EB84014868414601F008FD40
:1056E00002D2E01B87B203E0601C84B2B442EBDB61
:1056F00000BF0E2F08DD642F06DA40F6B83090FBAD
:10570000F7F080B2BDE8F0870020FBE72DE9F04F0D
:1057100091B005460E46174628680F90D5F80080D0
:1057200030680E90D6F80090012423E055F824103C
:105730000F9801F0DDFC02D255F824000F9055F8C7
:105740002410404601F0D4FD01D255F8248056F8CB
:1057500024100E9801F0CCFC02D256F824000E90D2
:1057600056F82410484601F0C3FD01D256F82490A3
:10577000601C84B2BC42D9DB41460F9801F0EAFDBF
:1057800049460C900E9801F03BFB0B900C9901F0F0
:10579000E3FC834649460E9801F0DCFD41460C903F
:1057A0000F9801F02DFB0B900C9901F0D5FC594698
:1057B0000D9001F093FB8246504601F0F5FA174A2E
:1057C000174BCDE9040101F0D1F8CDE908015046AD
:1057D00001F0EAFACDE90401504601F0E5FA114A78
:1057E000114BCDE9000101F0C1F8CDE90201DDE97D
:1057F000042301F0BBF8CDE90601DDE9082300F040
:105800003DFE0A4A0A4BCDE90A0100F037FECDE918
:105810000C0100F001FE11B0BDE8F08FB4C876BEF7
:105820009F5A3E4048E17A14AE8746C0AE47E17ABF
:1058300014B657407CB504460D4616460123224651
:10584000AE211846CDE90056FCF778FF01207CBD5B
:1058500013B582B00446012003A903462246CDE9D0
:105860000010AE21FCF7F6FF012004B010BD0000CF
:105870001FB501210820FDF76FFEFEF7C3FF10B929
:10588000002004B010BD2020ADF8080004208DF8E1
:105890000B0002A93648FCF763FA01210846FDF720
:1058A0005BFE05210120FCF73BFA20200090002040
:1058B0008DF804000C208DF8050001208DF80600FD
:1058C0006846FCF759F940210920FFF7C1FF052080
:1058D000FEF7BEFDC0210220FFF7BAFF0021032022
:1058E000FFF7B6FF00210420FFF7B2FF00210520DB
:1058F000FFF7AEFF00210620FFF7AAFF00210520D9
:10590000FFF7A6FF00210420FFF7A2FF0F210820C8
:10591000FFF79EFF03210920FFF79AFF27210A20A6
:10592000FFF796FF24210C20FFF792FF24210D2082
:10593000FFF78EFF7F211020FFF78AFF012203A9C6
:105940000020FFF777FF00BF012203A90020FFF727
:1059500071FF0028F8D000BF012203A91046FFF70D
:1059600069FF0028F8D0FFF75BFE002089E7000000
:10597000000C014070B505460C46C4B9FDF7C4FAE9
:1059800000680BA186683046FAF7E4FE18B928468D
:10599000FFF788FC0BE0FDF7B7FA006807A18668FF
:1059A0003046FAF7D7FE10B92846FFF7A3FC70BDC2
:1059B0004D61696E204D656E750000007365745F02
:1059C0006D656E750000000000B5014600F066FCD4
:1059D000401A00BD2DE9F04F87B081460024062013
:1059E00005A901233B22CDE90010D0211846FCF780
:1059F000A5FE00BF3CE005AA611C515C125D01EBF5
:105A0000022001F049FB04901C49049801F0F8F9C8
:105A100006464FF08D4101F061FA254604EBD57141
:105A2000491049F82100A24604EBDA71491059F8EF
:105A3000210001F0B9F907464FF03332104B00F066
:105A400095FF00220F4BCDE9000100F08FFF0E4AB9
:105A50000E4BCDE9020100F0C5FD054600F0DCFC6F
:105A6000A34604EBDB71491049F82100A01CC4B225
:105A7000062CC0DB07B0BDE8F08F00000000BD437E
:105A80003333F33F008066401F85EB51B81E094059
:105A900070B505460E46002406B970BD00242CE002
:105AA000285D0D2802D0285D0A2813D115480078FA
:105AB000242804D114480168124800F075F8002029
:105AC0001049087010490860601C285C0A2813D12E
:105AD000641C11E00C480068FF280DD2295D0A48BB
